:020000040000FA
:100000005EEF1DF0C96E1200F4EF19F0F8EC12F07B
:100010002BEC17F0FDD71200B0EF1BF0D9CFE5FFA6
:10002000E1CFD9FF00C0E5FF01C0E5FF02C0E5FF59
:1000300003C0E5FF04C0E5FF05C0E5FF06C0E5FF1E
:1000400007C0E5FF08C0E5FF09C0E5FF0AC0E5FFFE
:100050000BC0E5FF0CC0E5FF0DC0E5FF0EC0E5FFDE
:100060000FC0E5FF10C0E5FF11C0E5FF12C0E5FFBE
:1000700013C0E5FF14C0E5FF15C0E5FF16C0E5FF9E
:1000800017C0E5FF18C0E5FF19C0E5FF1AC0E5FF7E
:100090001BC0E5FF1CC0E5FF1DC0E5FF1EC0E5FF5E
:1000A000020EDBCF00F0030EDBCF01F0040EDBCF3E
:1000B00002F0050EDBCF03F0060EDBCF04F0070ED7
:1000C000DBCF05F0080EDBCF06F0090EDBCF07F023
:1000D0000A0EDBCF08F0096A0A6A02C00DF00D5063
:1000E000800A0DE102500301466F0150456F005038
:1000F000446F030E016E440E006E800E026E03C04C
:10010000E9FF04C0F3FF0550A8EC1DF00B6E0B5087
:10011000D8B4C4EF03F00B50250A02E0ABEF03F0B4
:100120000C6A0D6A0E6A0F6A106A0A0E116E126A64
:10013000136A146A200E156E1668176A2B0E186E55
:10014000032A02E3044A052A03C0E9FF04C0F3FFBF
:100150000550A8EC1DF0196E250A13E11950E56E43
:100160000250E56E0150E56E0050E56EEFEC10F0C8
:10017000040EE126094A0A2A032A02E3044A052A50
:10018000BED71950300A06E1300E156E032A02E37D
:10019000044A052A03C0E9FF04C0F3FF0550A8EC98
:1001A0001DF02D0A06E1010E146E032A02E3044A33
:1001B000052A03C0E9FF04C0F3FF0550A8EC1DF0B9
:1001C000200A08E1010E176E200E186E032A02E3C2
:1001D000044A052A03C0E9FF04C0F3FF0550A8EC58
:1001E0001DF02B0A06E1010E176E032A02E3044AF2
:1001F000052A03C0E9FF04C0F3FF0550A8EC1DF079
:10020000196E310E195C2BE33A0E195C28E203C01B
:1002100019F004C01AF005C01BF019C0E9FF1AC09C
:10022000F3FF1B50A8EC1DF01C6E300E1C5C11E39C
:100230003A0E1C5C0EE213500A0DF3CF1DF01C5059
:100240001D26D00E1D24136E192A02E31A4A1B2AFA
:10025000E4D719C003F01AC004F01BC005F003C0B6
:10026000E9FF04C0F3FF0550A8EC1DF02E0A2DE1B4
:10027000032A02E3044A052A166A03C019F004C0DF
:100280001AF005C01BF019C0E9FF1AC0F3FF1B509C
:10029000A8EC1DF01C6E300E1C5C11E33A0E1C5CC9
:1002A0000EE216500A0DF3CF1DF01C501D26D00E85
:1002B0001D24166E192A02E31A4A1B2AE4D719C014
:1002C00003F01AC004F01BC005F003C0E9FF04C02E
:1002D000F3FF0550A8EC1DF0196E6C0A07E1010E42
:1002E0000C6E032A02E3044A052A09D01950680A51
:1002F00006E1010E0E6E032A02E3044A052A03C03A
:10030000E9FF04C0F3FF0550A8EC1DF0750A06E1F3
:10031000010E106E032A02E3044A052A03C0E9FF16
:1003200004C0F3FF0550A8EC1DF0196E730A05E137
:10033000010E0D6E200E156E3FD01950780A03E1A4
:10034000100E116E39D01950580A05E1100E116EB9
:10035000010E126E31D01950630A02E1116A2CD0DD
:1003600019506F0A03E1080E116E26D01950660A63
:1003700003E1010E0F6E20D01950640A1DE01950E0
:10038000690A1AE0105005E0FF0E03260422052238
:1003900013D01950E56E0250E56E0150E56E005025
:1003A000E56EEFEC10F0040EE126094A0A2A032A52
:1003B00002E3044A052AA3D60D5021E00650030F9C
:1003C0000D6E000E0720196E000E08201A6E0DC06B
:1003D00006F019C007F01AC008F0FD0E0D26FF0E3A
:1003E00019221A220DC0E9FF19C0F3FF1A5073EC4D
:1003F0001CF00D6EF3CF19F0F4CF1AF0FDD00F50B2
:100400000DE0000E1A6E080E196E100E0D6E040E21
:100410000626000E072208221668EED016680C5039
:1004200023E00650040F0C6E000E07200F6E000E26
:1004300008201B6E0CC006F00FC007F01BC008F0B0
:10044000FC0E0C26FF0E0F221B220CC0E9FF0FC072
:10045000F3FF1B50F9EC1BF00C6EF3CF0FF0F4CF51
:100460001BF0E9CF1CF067D00E502FE00650020FB2
:100470000E6E000E07201D6E000E08201E6E0EC0B0
:1004800006F01DC007F01EC008F0FE0E0E26FF0E7F
:100490001D221E220EC0E9FF1DC0F3FF1E5032ECCC
:1004A0001DF00E6E0EC00CF00F6A1B6A1C6A115014
:1004B0000A0A03E11050D8B43ED00C500E6E0EC0A4
:1004C0000CF00F6A1B6A1C6A36D00650020F0E6EC3
:1004D000000E07201D6E000E08201E6E0EC006F0D6
:1004E0001DC007F01EC008F0FE0E0E26FF0E1D22D6
:1004F0001E220EC0E9FF1DC0F3FF1E5032EC1DF09E
:100500000E6EF3CF1DF00EC00CF01DC00FF0E86AA8
:100510001DBEFF0E1B6E1C6E11500A0A02E1105028
:100520000AE00C500E6E0F501D6E0EC00CF01DC078
:100530000FF01B6A1C6A040E196EF40E0D6E800E0D
:100540001A6E1150D8B440D0105013E01150E56E1F
:10055000040EE56EF40EE56E1C50E56E1B50E56E64
:100560000F50E56E0C50E56E0CEC0CF0070EE1261A
:1005700012D01150E56E040EE56EF40EE56E1C50BF
:10058000E56E1B50E56E0F50E56E0C50E56E7DEC90
:1005900015F0070EE12617502FE00DC0E9FF19C036
:1005A000F3FF1A50A8EC1DF02D0A26E0FF0E0D26D1
:1005B00019221A2218C0E5FF0DC0E9FF19C0F3FF88
:1005C0001A502FEC1EF018D00CC0E5FF0DC0E9FF4B
:1005D00019C0F3FF1A502FEC1EF00D50010F0C6ED6
:1005E000000E19200E6E000E1A20E56A0CC0E9FFFD
:1005F0000EC0F3FF2FEC1EF00DC00CF019C00EF072
:100600001AC00FF013C010F0105010E00CC0E9FF3A
:100610000EC0F3FF0F50A8EC1DF0176E175006E048
:100620000C2A02E30E4A0F2A1006EED710C013F070
:1006300014501EE109C00CF00AC00EF010C00FF0FB
:100640000F5010E01550E56E0250E56E0150E56E5A
:100650000050E56EEFEC10F0040EE1260C4A0E2A75
:100660000F06EED70CC009F00EC00AF00FC013F051
:1006700016C00CF00DC00DF019C00EF01AC00FF02E
:1006800009C010F00AC015F00DC0E9FF0EC0F3FF5D
:100690000F50A8EC1DF0166E1650D8B43ED00CC00A
:1006A00016F0176A161E171E1650171005E00CC01C
:1006B00016F00C06165031E00DC0E9FF0EC0F3FF36
:1006C0000F50A8EC1DF0116E125010E01150E56EA5
:1006D000EFEC1CF0166EE652165004E0DF0E11141B
:1006E000166E02D011C016F016C011F01150E56E52
:1006F0000250E56E0150E56E0050E56EEFEC10F033
:10070000040EE1260D2A02E30E4A0F2A104A152A8A
:100710001350D8B4B9D71306B7D710C009F015C015
:100720000AF014502BE010C00CF015C00DF013C0EF
:100730000EF00E501FE0200EE56E0250E56E0150E7
:10074000E56E0050E56EEFEC10F0040EE1260C4A69
:100750000D2A0E06EED70B50E56E0250E56E0150E5
:10076000E56E0050E56EEFEC10F0040EE126094A4C
:100770000A2A04D00CC009F00DC00AF0032A02E3D3
:10078000044A052A7FEF00F00AC0F3FF0950E4CFC6
:100790001EF0E4CF1DF0E4CF1CF0E4CF1BF0E4CF5B
:1007A0001AF0E4CF19F0E4CF18F0E4CF17F0E4CF5B
:1007B00016F0E4CF15F0E4CF14F0E4CF13F0E4CF5B
:1007C00012F0E4CF11F0E4CF10F0E4CF0FF0E4CF5B
:1007D0000EF0E4CF0DF0E4CF0CF0E4CF0BF0E4CF5B
:1007E0000AF0E4CF09F0E4CF08F0E4CF07F0E4CF5B
:1007F00006F0E4CF05F0E4CF04F0E4CF03F0E4CF5B
:1008000002F0E4CF01F0E4CF00F0E4CFD9FF120012
:100810003C4E4F20464C4F41543E000000C0E5FF87
:1008200001C0E5FF02C0E5FF03C0E5FF04C0E5FF2E
:1008300005C0E5FF06C0E5FF07C0E5FF08C0E5FF0E
:1008400009C0E5FF0AC0E5FF0BC0E5FF0CC0E5FFEE
:10085000006A016A026A040E025CD8B0ECD101C0E1
:1008600003F0012A100E035CD8B0E5D103012E2B52
:10087000100E2E5D01E32E6B03012E39E8441F0B91
:10088000036E046A490E0326030E042203C0E9FF27
:1008900004C0EAFFEFCF03F02EC304F0070E0416E6
:1008A000010E056E000E066E045006E0E86CD8904E
:1008B00005360636010FFCE3076A0350051607509C
:1008C000061605500610D880E866D890056A0536E9
:1008D0000550D8A4C0D703012E51020DF450046E68
:1008E000F3CF03F0E00E0324056E000E0420066E25
:1008F00005C0E9FF06C0EAFFEECF05F0EFCF06F036
:100900002BC307F007A09DD0930E0324076E040E9F
:100910000420086E07C0E9FF08C0EAFFEECF07F029
:10092000EFCF08F00650800FF36E0850800FF35C95
:1009300002E10750055C03E2056A066A60D0B30E67
:100940000326040E042203C0E9FF04C0EAFFEECF31
:1009500003F0EFCF04F00450800FF36E0650800FC9
:10096000F35C02E10550035C04E205683F0E066E8D
:1009700046D00750055C096E085006580A6EE86AB2
:100980000ABEFF0E0B6EE56E0B50E56E0A50E56E6B
:100990000950E56EE56AE56A400EE56E000EE56A0F
:1009A00002EC0BF0096EF3CF0AF0F4CF0BF0E9CFB5
:1009B0000CF0080EE1260750035C076E085004583F
:1009C000086EE86A08BEFF0E036EE56E0350E56E22
:1009D0000850E56E0750E56E0C50E56E0B50E56E65
:1009E0000A50E56E0950E56E45EC0FF0036EF3CF4B
:1009F00004F0080EE1260350056E0450066E030154
:100A00002A51800FF36E0650800FF35C02E105500F
:100A1000295D03E3056A066A14D003012951FF0822
:100A2000036E3F0E2A55046E0650800FF36E04507D
:100A3000800FF35C02E10350055C03E305683F0EA1
:100A4000066E03012E51020DF450046EF3CF03F035
:100A5000590E0326040E042203C0E9FF04C0EAFF76
:100A6000EECF03F0EFCF04F00350055C036E0450AB
:100A70000658046ED88004AED89004E3041E036CBC
:100A8000D8B4042A022A03012A51800FF36E0450BD
:100A9000800FF35C02E10350295DD8B0DCD603017E
:100AA0002E51020DF450086EF3CF07F0590E0726B1
:100AB000040E082207C0E9FF08C0EAFF05C0EEFFE8
:100AC00006C0EFFF2BC307F007A459D02E51020D2B
:100AD000F450086EF3CF07F0D30E0724096E040E0E
:100AE00008200A6E09C0E9FF0AC0EAFFEECF0BF04A
:100AF000EFCF0CF00B500C10D8B441D0390E0726B4
:100B0000040E082207C0E9FF08C0EAFFEECF07F095
:100B1000EFCF08F00750055C036E08500658046ECE
:100B200003101CE00450800F800F02E1010E035CF3
:100B3000076A07360C50800F800F02E1010E0B5C34
:100B40000B6A0B3607500B1809E109C0E9FF0AC010
:100B5000EAFF03C0EEFF04C0EFFF7DD603012E5174
:100B6000020DF450046EF3CF03F0D30E0326040EEF
:100B7000042203C0E9FF04C0EAFFEE6AEF6A2BC358
:100B800003F003A244D000500EE100C003F0002A9D
:100B9000046A2F0E0326030E042203C0E9FF04C0DB
:100BA000EAFF420EEF6E00C003F0002A046A2F0E27
:100BB0000326030E042203012E51076E640E07263E
:100BC00003C0E9FF04C0EAFF07C0EFFF00C003F065
:100BD000002A046A2F0E0326030E04220650076E15
:100BE00003C0E9FF04C0EAFF07C0EFFF00C003F045
:100BF000002A046A2F0E0326030E04220550076EF6
:100C000003C0E9FF04C0EAFF07C0EFFF24D62EC3EC
:100C100003F00650E56E0550E56EE56A0350E56E9B
:100C2000000EE56E240EE56EF60EE56E4AEC18F049
:100C3000070EE12610D602C001F000501EE02BC3C3
:100C400002F002A21AD000C002F0002A036A2F0E9E
:100C50000226030E032202C0E9FF03C0EAFF0A0EC8
:100C6000EF6E0050E56E800EE56E030EE56E2F0E02
:100C7000E56E7BEC11F0040EE1260150E4CF0CF0A0
:100C8000E4CF0BF0E4CF0AF0E4CF09F0E4CF08F0B2
:100C9000E4CF07F0E4CF06F0E4CF05F0E4CF04F0B2
:100CA000E4CF03F0E4CF02F0E4CF01F0E4CF00F0B2
:100CB000120000C0E5FF01C0E5FF02C0E5FF03C070
:100CC000E5FF04C0E5FF05C0E5FF06C0E5FF07C07E
:100CD000E5FF08C0E5FF09C0E5FF0AC0E5FFC2A2C5
:100CE00004D003012C518BEF08F003012D51D8B42F
:100CF00028D103012C51020DF450016EF3CF00F006
:100D0000E00E0026000E012200C0E9FF01C0EAFF4C
:100D1000EECF00F0EFCF01F0230E2C25026E036A18
:100D2000040E032202C0E9FF03C0EAFFEFCF02F086
:100D30000250FF0A01E166D002380F0B036E920EDB
:100D40000324046E056A0F0E0522066A920E03261E
:100D50000F0E062203C0E9FF06C0EAFFEFCF03F043
:100D60000250066E070E0616010E076E06500DE0C5
:100D700006E6E86CD8900736010FFDE306D0D89060
:100D800007BED8800732010FFBE3071C066E035035
:100D9000061604C0E9FF05C0EAFF06C0EFFF0238EF
:100DA0000F0B036E890E0324046E056A0F0E0522D5
:100DB000066A890E03260F0E062203C0E9FF06C04D
:100DC000EAFFEFCF03F00250066E070E0616010E83
:100DD000076E06500DE006E6E86CD8900736010F66
:100DE000FDE306D0D89007BED8800732010FFBE3A1
:100DF000071C066E0350061604C0E9FF05C0EAFF93
:100E000006C0EFFF03012C51020DF450046EF3CF26
:100E100003F0E00E0326000E042201C006F000C01D
:100E200005F00550005C056E06500158066EC3CFF4
:100E300007F0086A0750052608500622C4CF07F0BD
:100E4000086A07500A6E096A095005260A500622E8
:100E500003C0E9FF04C0EAFF05C0EEFF06C0EFFFD4
:100E600003012851010A01E06AD003012C51020D4F
:100E7000F450046EF3CF03F0E00E0324056E000E71
:100E80000420066E05C0E9FF06C0EAFFEECF00F0C1
:100E9000EFCF01F0930E0326040E042203C0E9FFF6
:100EA00004C0EAFFEECF05F0EFCF06F09C0E05265A
:100EB000D8A006060150800FF36E0650800FF35C39
:100EC00002E10550005C0EE20050640F056E000E5A
:100ED0000120066E03C0E9FF04C0EAFF05C0EEFF73
:100EE00006C0EFFF03012C51020DF450046EF3CF46
:100EF00003F0B30E0326040E042203C0E9FF04C06E
:100F0000EAFFEECF05F0EFCF06F0640E0526D8B06D
:100F1000062A0650800FF36E0150800FF35C02E149
:100F20000050055C0CE29C0E0026D8A0010603C010
:100F3000E9FF04C0EAFF00C0EEFF01C0EFFF0301BC
:100F40002D6B03012C2B100E2C5D01E32C6B030188
:100F50002C39E8441F0B006E016A490E0026030E6F
:100F6000012200C0E9FF01C0EAFFEFCF00F02CC36F
:100F700001F0070E0116010E036E000E046E015003
:100F800006E0E86CD89003360436010FFCE3056AEE
:100F9000005003160550041603500410D880E8666C
:100FA000D890036A03360350D8A4B3D0230E0301AC
:100FB0002C25006E016A0F0E012200C0E9FF01C05E
:100FC000EAFFEFCF00F00044E844FC0B016E01287B
:100FD000C26E230E2C25006E016A040E012200C091
:100FE000E9FF01C0EAFFEFCF02F00250FF0A01E182
:100FF0008CD002380F0B006E920E0024016E036A33
:101000000F0E0322046A920E00260F0E042200C067
:10101000E9FF04C0EAFFEFCF00F00250046E070EB4
:101020000416010E056E04500DE006E6E86CD8903B
:101030000536010FFDE306D0D89005BED8800532F5
:10104000010FFBE30050051201C0E9FF03C0EAFFF6
:1010500005C0EFFF380E006E0F0E016E02380F0B49
:10106000036E046A0350002604500122380E056EF8
:101070000F0E066E055003260650042203C0E9FF3A
:1010800004C0EAFFEFCF03F0070E0216010E046E54
:1010900002500DE006E6E86CD8900436010FFDE33F
:1010A00006D0D89004BED8800432010FFBE3035071
:1010B000041200C0E9FF01C0EAFF04C0EFFF0F0106
:1010C00045830000000045930F0144930BC0E5FFEA
:1010D000F2CF0BF0F29E44810000000000000000FF
:1010E0000000000000000000000000000000000000
:1010F00000000000000000000000000000000000F0
:1011000044910BBEF28EE4CF0BF0C282010E0301BC
:101110002D6F03012C51E4CF0AF0E4CF09F0E4CFA6
:1011200008F0E4CF07F0E4CF06F0E4CF05F0E4CF19
:1011300004F0E4CF03F0E4CF02F0E4CF01F0E4CF19
:1011400000F01200800EE56E040EE56EB30EE56E43
:101150008FEC16F0030EE126800EE56E040EE56EB0
:10116000930EE56E8FEC16F0030EE126800EE56E11
:10117000040EE56EB50EE56E8FEC16F0030EE1265B
:10118000800EE56E040EE56E950EE56E8FEC16F0A2
:10119000030EE126800EE56E040EE56EB70EE56ED9
:1011A0008FEC16F0030EE126800EE56E040EE56E60
:1011B000970EE56E8FEC16F0030EE126800EE56EBD
:1011C000040EE56EB90EE56E8FEC16F0030EE12607
:1011D000800EE56E040EE56E990EE56E8FEC16F04E
:1011E000030EE126800EE56E040EE56EBB0EE56E85
:1011F0008FEC16F0030EE126800EE56E040EE56E10
:101200009B0EE56E8FEC16F0030EE126800EE56E68
:10121000040EE56EBD0EE56E8FEC16F0030EE126B2
:10122000800EE56E040EE56E9D0EE56E8FEC16F0F9
:10123000030EE126800EE56E040EE56EBF0EE56E30
:101240008FEC16F0030EE126800EE56E040EE56EBF
:101250009F0EE56E8FEC16F0030EE126800EE56E14
:10126000040EE56EC10EE56E8FEC16F0030EE1265E
:10127000800EE56E040EE56EA10EE56E8FEC16F0A5
:10128000030EE126800EE56E040EE56EC30EE56EDC
:101290008FEC16F0030EE126800EE56E040EE56E6F
:1012A000A30EE56E8FEC16F0030EE126800EE56EC0
:1012B000040EE56EC50EE56E8FEC16F0030EE1260A
:1012C000800EE56E040EE56EA50EE56E8FEC16F051
:1012D000030EE126800EE56E040EE56EC70EE56E88
:1012E0008FEC16F0030EE126800EE56E040EE56E1F
:1012F000A70EE56E8FEC16F0030EE126800EE56E6C
:10130000040EE56EC90EE56E8FEC16F0030EE126B5
:10131000800EE56E040EE56EA90EE56E8FEC16F0FC
:10132000030EE126800EE56E040EE56ECB0EE56E33
:101330008FEC16F0030EE126800EE56E040EE56ECE
:10134000AB0EE56E8FEC16F0030EE126800EE56E17
:10135000040EE56ECD0EE56E8FEC16F0030EE12661
:10136000800EE56E040EE56EAD0EE56E8FEC16F0A8
:10137000030EE126800EE56E040EE56ECF0EE56EDF
:101380008FEC16F0030EE126800EE56E040EE56E7E
:10139000AF0EE56E8FEC16F0030EE126800EE56EC3
:1013A000040EE56ED10EE56E8FEC16F0030EE1260D
:1013B000800EE56E040EE56EB10EE56E8FEC16F054
:1013C000030EE126120000C0E5FF01C0E5FF02C0E8
:1013D000E5FF03C0E5FF03012551D8B40AD19DA85C
:1013E0001DD09EA81BD0030154510301511905E1E2
:1013F000E5EC1DF00301516BFCD0000E03015425F8
:10140000006E016A040E012200C0E9FF01C0EAFF7C
:10141000EFCF4DF3542B4DC3ADFFEBD09EAAE9D0D7
:10142000ABA205D003015281E5EC1DF0E2D0ABA4E4
:1014300005D003015283E5EC1DF0DBD0ABA048D012
:10144000AECF4DF326C300F0016A008E4DC302F00B
:10145000036A0250001803E10350011801E004D0B0
:1014600003015289AB96C5D003014D5104E04D51A3
:101470000301261929E103015299AB9603014D514D
:1014800003E00301529702D0030152874DC356F384
:101490004FC357F303014F51006E00040301586F0F
:1014A000600E03015725006E016A000E012200C084
:1014B000E9FF01C0EAFF4DC3EFFF572B5751800AE8
:1014C00002E10301576B95D003015299AB8691D08D
:1014D000AECF4DF3030152A921D026C300F0016A1B
:1014E000008E4DC302F0036A0250001803E103505E
:1014F000011801E011D08B909D9AAB9803015151D6
:1015000004E1AD6AE5EC1DF007D000C4ADFF010EAB
:101510000301546F9D886DD0AB866BD003014D5194
:101520000301562703015751030158191BE1030119
:1015300056510CE157C34FF3030152B712D08B90B1
:101540009D9AAB98AD6AE5EC1DF00BD00301528576
:1015500052B707D08B909D9AAB98010EAD6EE5EC1B
:101560001DF047D0030157510301501908E1030151
:10157000505103014F1903E0E5EC1DF03AD04FC381
:1015800000F0016A004A012AE56A800EE56E01500A
:10159000E56E0050E56E68EC13F0006E040EE12677
:1015A000005003014E6F030157190FE14DC300F0C6
:1015B0001F0E00140301586F006E020E0024586FB6
:1015C00003014F5103015827589F57C300F00301EF
:1015D000572B016A600E0026000E012200C0E9FFB1
:1015E00001C0EAFF4DC3EFFF5751800A02E103013A
:1015F000576BE4CF03F0E4CF02F0E4CF01F0E4CF87
:1016000000F01200D9CFE5FFE1CFD9FF00C0E5FF20
:1016100001C0E5FF02C0E5FF03C0E5FF04C0E5FF30
:1016200005C0E5FF06C0E5FF07C0E5FF020EDBCF02
:1016300000F0030EDBCF01F0040EDBCF02F0050E4D
:10164000DBCF03F0060EDBCF04F0070EDBCF05F097
:10165000080EDBCF06F0090EDBCF07F000500401C7
:10166000816F0150826F0250836F0350846F04506A
:101670000401856F0550866F0650876F0750886F8D
:101680000401815104018703F4CF01F0F3CF00F08E
:10169000005004018C6F01508D6F040181510401D1
:1016A0008503F4CF01F0F3CF00F0005004018A6FFE
:1016B00001508B6F0401845104018503F3CF00F0C6
:1016C00004018D51002600508D6F040183510401E7
:1016D0008603F3CF01F001500026005004018D6F06
:1016E0000401835104018503F4CF01F0F3CF00F02E
:1016F00004018C5100268D51012200508C6F015045
:101700008D6F0401825104018603F4CF03F0F3CFFF
:1017100002F00250002603500122005004018C6F99
:1017200001508D6F0401825104018703F3CF00F053
:1017300000500401916F0401825104018503F4CF2C
:1017400001F0F3CF00F0005004018F6F0150906F53
:101750000401815104018803F3CF00F0005003011C
:10176000406F0401815104018603F4CF01F0F3CFEF
:1017700000F0005003013E6F01503F6F04018E6B7B
:1017800003013D6B04018E5104018A25006E0401A2
:101790008F5104018B21016E0401905104018C21B1
:1017A000026E0401915104018D21036E00508A6F75
:1017B00001508B6F02508C6F03508D6F03013D51B0
:1017C00004018A25006E03013E5104018B21016E44
:1017D00003013F5104018C21026E030140510401B9
:1017E0008D21036E03C0E9FF02C0F4FF01C0F3FFC7
:1017F0000050E4CF07F0E4CF06F0E4CF05F0E4CFEB
:1018000004F0E4CF03F0E4CF02F0E4CF01F0E4CF42
:1018100000F0E4CFD9FF1200D9CFE5FFE1CFD9FF27
:1018200000C0E5FF01C0E5FF02C0E5FF03C0E5FF22
:1018300004C0E5FF05C0E5FF06C0E5FF07C0E5FF02
:1018400008C0E5FF09C0E5FF0AC0E5FF0BC0E5FFE2
:101850000CC0E5FF0DC0E5FF0EC0E5FF0FC0E5FFC2
:10186000020EDBCF00F0030EDBCF01F0040EDBCF66
:1018700002F0050EDBCF03F0060EDBCF04F0070EFF
:10188000DBCF05F0080EDBCF06F0200E076E086AEE
:1018900006C009F00A6A0B6A0C6AE56AE56AE56A3D
:1018A0000950E56E0350E56E0250E56E0150E56E9D
:1018B0000050E56EE8EC0CF00D6E080EE126300EDF
:1018C0000D263A0E0D5C05E30D500E6E270E0E240C
:1018D0000D6EFF0E07260822000E07240E6E030E63
:1018E00008200F6E0EC0E9FF0FC0EAFF0DC0EFFF2A
:1018F0000C50E56E0B50E56E0A50E56E0950E56E32
:101900000350E56E0250E56E0150E56E0050E56E45
:1019100045EC0FF0006EF3CF01F0F4CF02F0E9CF09
:1019200003F0080EE1260050011002100310D8A4A5
:10193000AFD707C000F008C001F004C002F005C036
:1019400003F000C004F001C005F0004A012A000EB7
:101950000426030E052204C0E9FF05C0EAFFEFCF0D
:1019600004F002C0E9FF03C0EAFF04C0EFFF024A2F
:10197000032A000E015C02E1200E005CE2E302C0DB
:10198000E9FF03C0EAFF000EEF6AE4CF0FF0E4CFF7
:101990000EF0E4CF0DF0E4CF0CF0E4CF0BF0E4CF89
:1019A0000AF0E4CF09F0E4CF08F0E4CF07F0E4CF89
:1019B00006F0E4CF05F0E4CF04F0E4CF03F0E4CF89
:1019C00002F0E4CF01F0E4CF00F0E4CFD9FF120041
:1019D000D9CFE5FFE1CFD9FF00C0E5FF01C0E5FFAA
:1019E00002C0E5FF03C0E5FF04C0E5FF05C0E5FF59
:1019F00006C0E5FF07C0E5FF08C0E5FF09C0E5FF39
:101A00000AC0E5FF020EDBCF00F0030EDBCF01F0D2
:101A1000040EDBCF02F0050EDBCF03F0060EDBCFAA
:101A200004F0070EDBCF05F0080EDBCF06F0090E41
:101A3000DBCF07F0086A045005100610071005E117
:101A4000E968F468F368E86847D0096A0750800BD2
:101A5000E8440A6E0A501BE1045004260536063697
:101A600007360750035C08E10650025C05E10550AB
:101A7000015C02E10450005C06E2D89007320632B5
:101A80000532043204D0092A09C008F0DFD7075014
:101A9000035C08E10650025C05E10550015C02E1CF
:101AA0000450005C08E30450005E0550015A0650E3
:101AB000025A0750035AD8900732063205320432D0
:101AC00008C009F008060950E2E103C0E9FF02C0BE
:101AD000F4FF01C0F3FF0050E4CF0AF0E4CF09F0B7
:101AE000E4CF08F0E4CF07F0E4CF06F0E4CF05F050
:101AF000E4CF04F0E4CF03F0E4CF02F0E4CF01F050
:101B0000E4CF00F0E4CFD9FF120000C0E5FF01C030
:101B1000E5FF02C0E5FF03C0E5FF04C0E5FF0301E8
:101B2000505103014F1901E16AD050C300F0005039
:101B3000016E0128006E009E600E0024016E026A94
:101B4000000E022201C0E9FF02C0EAFFEFCF5AF304
:101B50001F0E03015A1750C359F35A510301592755
:101B60005951016E020E0124596F599FEBEC1AF086
:101B7000016E015003E1016A012A01D0016AEBEC18
:101B80001AF003015A6F5AC302F0800E02165AC3AC
:101B900003F01F0E031603C004F003C05AF30450F1
:101BA00003E14FC350F33ED001501EE0025025E048
:101BB000EBEC1AF0006E03015A51016E01045A6FEA
:101BC0000050420A1AE000504E0A03E108EC18F0F7
:101BD00014D00050460A03E119EC1EF00ED000505C
:101BE000490A0BE1FF0009D050C35BF3025003E048
:101BF000C9EC18F002D0AEEC14F059C350F3030155
:101C000022510301231906E00301515103E11DECA8
:101C10000EF008D08BB006D00301515103E1ACB2F5
:101C2000E5EC1DF0E4CF04F0E4CF03F0E4CF02F0E4
:101C3000E4CF01F0E4CF00F0120000C0E5FF01C0E6
:101C4000E5FF02C0E5FF03C0E5FF04C0E5FFACA26D
:101C50007ED019EC1CF0006E005005E10301236BEF
:101C60000301226B74D023C301F00050012619EC4C
:101C70001CF0026E0050036E0304006E0250230A33
:101C80001FE1010E005CD8A060D019EC1CF0026EC0
:101C9000690A03E191EC1AF058D00250720A03E18C
:101CA000E5EC1DF052D00250730A01E04ED08B805B
:101CB000AB869D8A9D98AE50AE50AB98AB8845D010
:101CC0000250430A05E00250420A01E03ED006D02D
:101CD00000C003F0046A038E0350006E00C053F38B
:101CE00000500401006F010E0301546F03012351E2
:101CF000011814E019EC1CF0026E03015327000ECA
:101D000003015425006E036A040E032200C0E9FF9C
:101D100003C0EAFF02C0EFFF542BE8D7000E030117
:101D20005425006E026A040E02220301531D036E45
:101D3000032A00C0E9FF02C0EAFF03C0EFFF03016E
:101D4000542B54C351F303014B6B01C023F3E4CF75
:101D500004F0E4CF03F0E4CF02F0E4CF01F0E4CFED
:101D600000F01200D9CFE5FFE1CFD9FF00C0E5FFB9
:101D700001C0E5FF02C0E5FF03C0E5FF04C0E5FFC9
:101D800005C0E5FF06C0E5FF07C0E5FF08C0E5FFA9
:101D900009C0E5FF0AC0E5FF020EDBCF00F0030E2D
:101DA000DBCF01F0040EDBCF02F0050EDBCF03F03A
:101DB000060EDBCF04F0070EDBCF05F00038E84459
:101DC0001F0B066E076A490E0626030E072206C081
:101DD000E9FF07C0EAFFEFCF08F00050096E070ED9
:101DE0000916010E0A6E09500DE006E6E86CD8905F
:101DF0000A36010FFDE306D0D8900ABED8800A3219
:101E0000010FFBE308500A1206C0E9FF07C0EAFF12
:101E10000AC0EFFF230E0024066E076A0F0E07228A
:101E200006C0E9FF07C0EAFF01C0EFFF016A230E09
:101E30000026040E0122800E025E070E02160238F2
:101E4000F00B036E070E05160550032600C0E9FFD0
:101E500001C0EAFF03C0EFFFE4CF0AF0E4CF09F0CE
:101E6000E4CF08F0E4CF07F0E4CF06F0E4CF05F0CC
:101E7000E4CF04F0E4CF03F0E4CF02F0E4CF01F0CC
:101E8000E4CF00F0E4CFD9FF1200D9CFE5FFE1CFD6
:101E9000D9FF00C0E5FF01C0E5FF02C0E5FF03C0B8
:101EA000E5FF04C0E5FF05C0E5FF06C0E5FF07C08C
:101EB000E5FF08C0E5FF09C0E5FF0AC0E5FF0BC06C
:101EC000E5FF0CC0E5FF0DC0E5FF020EDBCF00F023
:101ED000030EDBCF01F0040EDBCF02F0050EDBCFEB
:101EE00003F0060EDBCF04F0070EDBCF05F0080E83
:101EF000DBCF06F0090EDBCF07F0086A096A0A6A31
:101F00000B6A200E0C6E0350800BE8440D6E0050DF
:101F100000260136023603360850082609360A36EE
:101F20000B360D50D8A4088007500B5C08E1065012
:101F30000A5C05E10550095C02E10450085C09E314
:101F40000450085E0550095A06500A5A07500B5AA9
:101F500000800C040D6E0DC00CF00D50D4E103C0D8
:101F6000E9FF02C0F4FF01C0F3FF0050E4CF0DF021
:101F7000E4CF0CF0E4CF0BF0E4CF0AF0E4CF09F0AB
:101F8000E4CF08F0E4CF07F0E4CF06F0E4CF05F0AB
:101F9000E4CF04F0E4CF03F0E4CF02F0E4CF01F0AB
:101FA000E4CF00F0E4CFD9FF120000C0E5FF01C08C
:101FB000E5FF03C0E5FF04C0E5FF05C0E5FF06C07F
:101FC000E5FF07C0E5FF08C0E5FF09C0E5FF0AC05F
:101FD000E5FF0BC0E5FF47C300F048C301F0030174
:101FE000473F01D0482B0050E56ED7EC1DF0E6527C
:101FF000076E046A056A066A47C300F048C301F029
:102000000301473F01D0482B0050E56ED7EC1DF08F
:10201000E6520B6A0A6E086A0850041205120A504A
:1020200006120B50071247C300F048C301F003012A
:10203000473F01D0482B0050E56ED7EC1DF0E6522B
:10204000036E006A03C001F0E86A03BEFF0E086E6B
:10205000096E005004120150051208500612095072
:10206000071247C300F048C301F00301473F01D006
:10207000482B0050E56ED7EC1DF0E652016A0412C1
:10208000015005120612071207C0E9FF06C0F4FF4F
:1020900005C0F3FF0450E4CF0BF0E4CF0AF0E4CF27
:1020A00009F0E4CF08F0E4CF07F0E4CF06F0E4CF86
:1020B00005F0E4CF04F0E4CF03F0E4CF01F0E4CF87
:1020C00000F01200D9CFE5FFE1CFD9FF00C0E5FF56
:1020D00001C0E5FF02C0E5FF03C0E5FF04C0E5FF66
:1020E00005C0E5FF06C0E5FF07C0E5FF020EDBCF38
:1020F00000F0030EDBCF01F0040EDBCF02F0050E83
:10210000DBCF03F003C004F0056A0350D8B454D009
:1021100000C0E9FF01C0F3FF0250A8EC1DF0066EFD
:10212000430A08E1010E056E03C006F0076A068E39
:102130000650036E0406002A02E3014A022A8B902D
:102140009D9AAB989D989EA8FED7AC80AD6A000082
:102150009EA8FED7AC9003C0ADFF00009EA8FED79E
:10216000055004E0420EAD6E032604D0620EAD6E43
:10217000620E0326045015E000009EA8FED700C0A2
:10218000E9FF01C0F3FF0250A8EC1DF0056E05C089
:10219000ADFF055003260406002A02E3014A022A85
:1021A000E9D700009EA8FED7031CAD6EAD2A000043
:1021B0009EA8FED7E5EC1DF0E4CF07F0E4CF06F0D3
:1021C000E4CF05F0E4CF04F0E4CF03F0E4CF02F075
:1021D000E4CF01F0E4CF00F0E4CFD9FF1200D9CF73
:1021E000E5FFE1CFD9FF00C0E5FF01C0E5FF02C078
:1021F000E5FF03C0E5FF04C0E5FF05C0E5FF06C03D
:10220000E5FF07C0E5FF020EDBCF00F0030EDBCFDA
:1022100001F0040EDBCF02F0050EDBCF03F002C0AD
:1022200006F00650046E800A33E100C0E9FF01C0E9
:10223000F3FF025073EC1CF0056EF3CF06F0F4CF01
:1022400007F003C0E5FF05C0E9FF06C0F3FF075034
:102250002FEC1EF000C0E9FF01C0F3FF025073EC49
:102260001CF0056EF3CF06F0F4CF07F0052A02E369
:10227000064A072A05C0E5FF06C0F4FF07C0F6FFBF
:1022800000C0E9FF01C0F3FF0250C8EC1DF020D0F0
:1022900004C000F000AA1CD0007A0050046E04E1D3
:1022A000035068EC1EF014D00450010A04E10350FE
:1022B00002EC00F00DD004500F0A04E1035060EC72
:1022C0001AF006D004500E0A03E1035078EC1EF019
:1022D000E4CF07F0E4CF06F0E4CF05F0E4CF04F05C
:1022E000E4CF03F0E4CF02F0E4CF01F0E4CF00F05C
:1022F000E4CFD9FF1200D9CFE5FFE1CFD9FF00C06D
:10230000E5FF01C0E5FF02C0E5FF03C0E5FF04C033
:10231000E5FF05C0E5FF06C0E5FF07C0E5FF020ECB
:10232000DBCF00F0030EDBCF01F0040EDBCF02F0B9
:10233000050EDBCF03F023C324F303012251030175
:10234000245F2451046E0404246F03C004F0056A62
:10235000030E0426D8B0052A24C306F0076A0750E6
:10236000800FF36E0550800FF35C02E10450065CB1
:1023700002E2E86830D0020E035C02E2E86A2BD089
:102380000350046E0404036EE56E43EC19F0E6524C
:10239000046A0350045C14E204500024056EE86AE9
:1023A0000120066EE86A022005C0E9FF06C0F3FFBF
:1023B000A8EC1DF0042AE56E43EC19F0E652E9D7CB
:1023C00023C324F3030122510301245F2451006E2F
:1023D0000004246FE86AE4CF07F0E4CF06F0E4CF0E
:1023E00005F0E4CF04F0E4CF03F0E4CF02F0E4CF53
:1023F00001F0E4CF00F0E4CFD9FF120000C0E5FF08
:1024000001C0E5FF02C0E5FF03C0E5FF04C0E5FF32
:10241000006A490E0024016E026A030E022201C006
:10242000E9FF02C0EAFFEF6A002A020E005CF1E356
:10243000006A0050020DF450026EF3CF01F0E00E7E
:102440000124036E000E0220046E03C0E9FF04C0E5
:10245000EAFFEE6AEF6A390E0124036E040E0220D1
:10246000046E03C0E9FF04C0EAFFEE6AEF6A590E8A
:102470000124036E040E0220046E03C0E9FF04C0B1
:10248000EAFFEE6AEF6A930E0124036E040E022047
:10249000046E03C0E9FF04C0EAFFEE6AEF6AB30E00
:1024A0000126040E022201C0E9FF02C0EAFFEE6825
:1024B0007F0EEF6E230E0024016E026A040E0222CC
:1024C00001C0E9FF02C0EAFFEF68002A100E005CBD
:1024D000D8A0AFD7AF0EC06EC16A010EC26EC28265
:1024E000E4CF04F0E4CF03F0E4CF02F0E4CF01F056
:1024F000E4CF00F012004320412025642025640A27
:102500000000D9CFE5FFE1CFD9FF00C0E5FF01C052
:10251000E5FF02C0E5FF03C0E5FF04C0E5FF05C01D
:10252000E5FF020EDBCF00F0030EDBCF01F0040E5F
:10253000DBCF02F00050020DF450036EF3CF00F039
:10254000390E0024046E040E0320056E04C0E9FF5A
:1025500005C0EAFF01C0EEFF02C0EFFF590E0024E4
:10256000046E040E0320056E04C0E9FF05C0EAFFF7
:10257000EECF04F0EFCF05F00150045C016E025085
:102580000558026ED30E0026040E032200C0E9FF98
:1025900003C0EAFF01C0EEFF02C0EFFFD88002AE29
:1025A000D89004E3021E016CD8B4022A0250800FB6
:1025B000800F02E1030E015C02E2016A026A01502F
:1025C000021007E100C0E9FF03C0EAFF000EEE6A57
:1025D000EF6AE4CF05F0E4CF04F0E4CF03F0E4CFFA
:1025E00002F0E4CF01F0E4CF00F0E4CFD9FF120015
:1025F00000C0E5FF01C0E5FF02C0E5FF03C0E5FF45
:1026000004C0E5FF63EC1EF094928B92C1EC1AF0CB
:10261000F3CF01F0F4CF02F0E9CF03F0880F04010B
:10262000336F130E0120346F000E0220356F000E41
:102630000320366FFEEC11F024EC1EF09280800E29
:10264000006E0F0E016E0F0E036E380E0026035043
:102650000122800E026E0F0E036E800E005E03508C
:10266000015A0F0E046E380E0226045003220F0E7C
:10267000046E800E025E0450035A02C0E9FF03C0DC
:10268000EAFFEFCF02F0028000C0E9FF01C0EAFFDD
:1026900002C0EFFF000EE56AE56A42EC14F0E65274
:1026A000E6529394B96AB9820C0EBD6E9396636A32
:1026B0006380666EE4CF04F0E4CF03F0E4CF02F071
:1026C000E4CF01F0E4CF00F01200430025630000E6
:1026D000D9CFE5FFE1CFD9FF00C0E5FF01C0E5FF9D
:1026E00002C0E5FF03C0E5FF04C0E5FF05C0E5FF4C
:1026F00006C0E5FF020EDBCF00F0030EDBCF01F0DA
:10270000040EDBCF02F0050EDBCF03F0D88001AE64
:10271000D890046A0436045007E0011C066E001CC1
:10272000056E054A062A04D000C005F001C006F077
:10273000D88003AED89007E3031C016E021C006E24
:10274000004A012A04D002C000F003C001F0015089
:10275000E56E0050E56E0650E56E0550E56EE0EC66
:1027600015F0006EF3CF01F0040EE12604500AE0EC
:10277000011C036E001C026E024A032A03C0F3FF11
:10278000025003D001C0F3FF0050E4CF06F0E4CFC5
:1027900005F0E4CF04F0E4CF03F0E4CF02F0E4CF9F
:1027A00001F0E4CF00F0E4CFD9FF1200D9CFE5FF6C
:1027B000E1CFD9FF00C0E5FF01C0E5FF02C0E5FFA2
:1027C00003C0E5FF04C0E5FF05C0E5FF020EDBCF57
:1027D00000F0030EDBCF01F0040EDBCF02F0050E9C
:1027E000DBCF03F047C304F048C305F00301473FC4
:1027F00001D0482B0350E56E0450E56ED5EC1BF07C
:10280000E652E65247C304F048C305F00301473FD0
:1028100001D0482B0250056EE56E0450E56ED5ECF4
:102820001BF0E652E65247C304F048C305F003012B
:10283000473F01D0482B0150E56E0450E56ED5ECC2
:102840001BF0E652E65247C304F048C305F003010B
:10285000473F01D0482B0050E56E0450E56ED5ECA3
:102860001BF0E652E652E4CF05F0E4CF04F0E4CFEB
:1028700003F0E4CF02F0E4CF01F0E4CF00F0E4CFC6
:10288000D9FF1200D9CFE5FFE1CFD9FF00C0E5FFA6
:1028900001C0E5FF02C0E5FF03C0E5FF04C0E5FF9E
:1028A00005C0E5FF06C0E5FF020EDBCF00F0030E1A
:1028B000DBCF01F00038E8441F0B026E036A490EBB
:1028C0000226030E032202C0E9FF03C0EAFFEFCF96
:1028D00004F00050056E070E0516010E066E055039
:1028E0000DE006E6E86CD8900636010FFDE306D051
:1028F000D89006BED8800632010FFBE304500612C2
:1029000002C0E9FF03C0EAFF06C0EFFF230E002468
:10291000026E036A0F0E032202C0E9FF03C0EAFF42
:1029200001C0EFFF016A230E0026040E012200C041
:10293000E9FF01C0EAFFFF0EEF68E4CF06F0E4CF45
:1029400005F0E4CF04F0E4CF03F0E4CF02F0E4CFED
:1029500001F0E4CF00F0E4CFD9FF120000C0E5FFA2
:1029600001C0E5FF02C0E5FF03C0E5FFEBEC1AF094
:10297000006E0A0A04E000500B0A2AE04FD0EBEC8C
:102980001AF0036E026AEBEC1AF0016A022601509B
:1029900003220250020BE840010BE838E844F46ED1
:1029A000BD50DF0BF410BD6E0250010B010BE83877
:1029B000F46EBD50EF0BF410BD6ED8900330016E75
:1029C0000230006ED890013200320050BE6E26D028
:1029D000EBEC1AF0036E026AEBEC1AF0016A0226C5
:1029E000015003220250020BE840010BE838E84492
:1029F000F46E6650DF0BF410666E0250010B010B93
:102A0000E838F46E6650EF0BF410666ED89003321F
:102A10000232D890033202320250676EE4CF03F0E4
:102A2000E4CF02F0E4CF01F0E4CF00F01200D9CF00
:102A3000E5FFE1CFD9FF00C0E5FF01C0E5FF02C01F
:102A4000E5FF03C0E5FF04C0E5FF05C0E5FF06C0E4
:102A5000E5FF020EDBCF00F0030EDBCF01F0040E2A
:102A6000DBCF02F00401375119E1D5EC0FF0036E12
:102A7000F3CF04F0F4CF05F0E9CF06F003C0E5FF93
:102A800004C0F4FF05C0F6FF06C0F7FF00C0E9FF71
:102A900001C0F3FF025097EC1DF01ED00401375126
:102AA000010A1AE100C0E9FF01C0F3FF0250F9EC8E
:102AB0001BF0006EF3CF01F0F4CF02F0E9CF03F08A
:102AC0000350E56E0250E56E0150E56E0050E56E74
:102AD000D6EC13F0040EE126E4CF06F0E4CF05F0C7
:102AE000E4CF04F0E4CF03F0E4CF02F0E4CF01F050
:102AF000E4CF00F0E4CFD9FF1200D9CFE5FFE1CF5A
:102B0000D9FF00C0E5FF01C0E5FF02C0E5FF03C03B
:102B1000E5FF04C0E5FF05C0E5FF06C0E5FF020EC6
:102B2000DBCF00F0030EDBCF01F0040EDBCF02F0B1
:102B3000050EDBCF03F0060EDBCF04F0070EDBCF74
:102B400005F0080EDBCF06F0D88003AED89015E371
:102B500006500A0A12E104C0E9FF05C0EAFF2D0E83
:102B6000EF6E044A052A031E021E011E006C05E1D9
:102B7000012A03E1022AD8B4032A0650E56E055063
:102B8000E56E0450E56E0350E56E0250E56E0150AF
:102B9000E56E0050E56E0CEC0CF0070EE126E4CF7C
:102BA00006F0E4CF05F0E4CF04F0E4CF03F0E4CF87
:102BB00002F0E4CF01F0E4CF00F0E4CFD9FF12003F
:102BC000D9CFE5FFE1CFD9FF00C0E5FF01C0E5FFA8
:102BD00002C0E5FF03C0E5FF04C0E5FF05C0E5FF57
:102BE00006C0E5FF020EDBCF00F0030EDBCF01F0E5
:102BF000040EDBCF02F0050EDBCF03F0046A056A9A
:102C00000350800BE844066E065011E10250022684
:102C100003360350015C02E10250005C04E2D890EC
:102C20000332023204D0052A05C004F0E9D703506C
:102C3000015C02E10250005C04E30250005E0350BC
:102C4000015AD8900332023204C005F00406055040
:102C5000EEE101C0F3FF0050E4CF06F0E4CF05F051
:102C6000E4CF04F0E4CF03F0E4CF02F0E4CF01F0CE
:102C7000E4CF00F0E4CFD9FF120000C0E5FF01C0AF
:102C8000E5FF02C0E5FF03C0E5FF50C300F0016AA5
:102C90005BC302F0036A0250005E0350015AE56A0A
:102CA000800EE56E0150E56E0050E56E68EC13F0A5
:102CB000006E040EE12600065BC301F0430E60ECDB
:102CC0001AF0200E60EC1AF0005020E0600E012493
:102CD000026E036A000E032202C0E9FF03C0EAFF8E
:102CE000EFCF02F0E56A0250E56E000EE56E3B0E96
:102CF000E56EE20EE56E4AEC18F0050EE126012ABB
:102D00000150800A01E1016A0006DED7E4CF03F03A
:102D1000E4CF02F0E4CF01F0E4CF00F01200D9CF0D
:102D2000E5FFE1CFD9FF00C0E5FF01C0E5FF02C02C
:102D3000E5FF03C0E5FF04C0E5FF020EDBCF00F0B6
:102D4000030EDBCF01F0040EDBCF02F0040137519C
:102D500011E12CEC1AF0036EF3CF04F003C0E5FF91
:102D600004C0F4FF00C0E9FF01C0F3FF025001EC12
:102D70001EF016D004013751010A12E100C0E9FF2C
:102D800001C0F3FF025032EC1DF0006EF3CF01F0F2
:102D90000150E56E0050E56E06EC19F0E652E65281
:102DA000E4CF04F0E4CF03F0E4CF02F0E4CF01F08D
:102DB000E4CF00F0E4CFD9FF1200B80EF66E3C0E5F
:102DC000F76E000EF86E0900F550056E0900F5501B
:102DD000066E04E1056702D02AEF17F00900F550EE
:102DE000006E0900F550016E0900F550026E0900F1
:102DF0000900F550E96E0900F550EA6E0900090076
:102E00000900F550036E0900F550046E0900090031
:102E1000F6CF07F0F7CF08F0F8CF09F000C0F6FFC3
:102E200001C0F7FF02C0F8FF035002E1045007E0C1
:102E30000900F550EE6E0306F8E20406F9D707C064
:102E4000F6FF08C0F7FF09C0F8FF050601E2060615
:102E5000E9EF16F0120000C0E5FF01C0E5FF02C077
:102E6000E5FF03C0E5FF85EC0DF059EC06F0C1EC81
:102E70001AF0006EF3CF01F0F4CF02F0E9CF03F0C7
:102E800004013351005E3451015A3551025A365112
:102E9000035A039E3F0E035C08E1FF0E025C05E14E
:102EA000FF0E015C02E1FF0E005C16E2C1EC1AF0BD
:102EB000F3CF01F0F4CF02F0E9CF03F0200F0401CB
:102EC000336F4E0E0120346F000E0220356F000E5E
:102ED0000320366F0EEC04F0E4CF03F0E4CF02F0F1
:102EE000E4CF01F0E4CF00F01200D9CFE5FFE1CF4D
:102EF000D9FF00C0E5FF01C0E5FF02C0E5FF03C048
:102F0000E5FF04C0E5FF020EDBCF00F00038E84427
:102F10001F0B016E026A490E0126030E022201C038
:102F2000E9FF02C0EAFFEFCF03F0070E0016010E23
:102F3000046E00500DE006E6E86CD8900436010FF0
:102F4000FDE306D0D89004BED8800432010FFBE325
:102F5000041C006E0350001601C0E9FF02C0EAFF26
:102F600000C0EFFFE4CF04F0E4CF03F0E4CF02F0C1
:102F7000E4CF01F0E4CF00F0E4CFD9FF1200D9CFC5
:102F8000E5FFE1CFD9FF00C0E5FF01C0E5FF02C0CA
:102F9000E5FF03C0E5FF04C0E5FF05C0E5FF020E45
:102FA000DBCF00F00050010A22E1016A0150020D5E
:102FB000F450036EF3CF02F0930E0224046E040E5D
:102FC0000320056E04C0E9FF05C0EAFFEE687F0E2E
:102FD000EF6EB30E0226040E032202C0E9FF03C007
:102FE000EAFFEE6AEF6A012A100E015CDFE300C01F
:102FF00028F3E4CF05F0E4CF04F0E4CF03F0E4CF0E
:1030000002F0E4CF01F0E4CF00F0E4CFD9FF1200EA
:1030100000C0E5FF01C0E5FF02C0E5FFEBEC1AF0E0
:10302000006EEBEC1AF0016E0050026ED00E02241E
:10303000006E0A0E005C05E30050026EF90E0224D9
:10304000006E0150026ED00E0224016E0A0E015C69
:1030500005E30150026EF90E0224016E080E005CB9
:1030600012E2100E015CD8B00ED00038F00B012433
:10307000006EBAEC19F0016E015005E10050E56EEA
:10308000A8EC1CF0E652E4CF02F0E4CF01F0E4CF6C
:1030900000F01200D9CFE5FFE1CFD9FF00C0E5FF76
:1030A00001C0E5FF02C0E5FF020ED924006E000E4C
:1030B000DA20016E800E026E030E0026000E012241
:1030C00002220250E56E0150E56E0050E56E040EDE
:1030D000DBCFE5FF030EDBCFE5FF020EDBCFE5FF25
:1030E00004017F51E56E7E51E56E7D51E56E0EEC7B
:1030F00000F0006EF3CF01F0090EE12601C0F3FFEE
:103100000050E4CF02F0E4CF01F0E4CF00F0E4CFD0
:10311000D9FF1200D9CFE5FFE1CFD9FF00C0E5FF0D
:1031200001C0E5FF02C0E5FF03C0E5FF020EDBCFF3
:1031300000F0030EDBCF01F0040EDBCF02F0040140
:1031400037510DE106EC1DF0036E03C0E5FF00C032
:10315000E9FF01C0F3FF02502FEC1EF00FD0040175
:103160003751010A0BE100C0E9FF01C0F3FF025033
:10317000A8EC1DF0E56E8AEC1BF0E652E4CF03F0FC
:10318000E4CF02F0E4CF01F0E4CF00F0E4CFD9FFC8
:10319000120000C0E5FF01C0E5FFEBEC1AF0006E85
:1031A0004C0A08E1EBEC1AF0300A02E08B8229D0DD
:1031B0008B9227D00050450A24E1000EE56E260EC2
:1031C000E56ECA0EE56E4AEC18F0030EE12672ECCD
:1031D0001EF0006E00C001F0000601500FE0EBECA5
:1031E0001AF0E56AE56E000EE56E260EE56ECC0E71
:1031F000E56E4AEC18F0050EE126ECD70A0E60ECFD
:103200001AF0E4CF01F0E4CF00F01200D9CFE5FFCF
:10321000E1CFD9FF00C0E5FF01C0E5FF02C0E5FF37
:1032200003C0E5FF020EDBCF00F0030EDBCF01F0A1
:1032300047C302F048C303F00301473F01D0482BC6
:103240000150E56E0250E56ED5EC1BF0E652E652F9
:1032500047C302F048C303F00301473F01D0482BA6
:103260000050E56E0250E56ED5EC1BF0E652E652DA
:10327000E4CF03F0E4CF02F0E4CF01F0E4CF00F0BC
:10328000E4CFD9FF1200D9CFE5FFE1CFD9FF00C0CD
:10329000E5FF01C0E5FF02C0E5FF03C0E5FF04C094
:1032A000E5FF020EDBCF00F022C301F0026A014A03
:1032B000022A23C303F0046A0150031803E10250F9
:1032C000041801E001D00ED0000E03012225016E8A
:1032D000026A010E022201C0E9FF02C0EAFF00C03B
:1032E000EFFF222BE4CF04F0E4CF03F0E4CF02F0B1
:1032F000E4CF01F0E4CF00F0E4CFD9FF1200D9CF42
:10330000E5FFE1CFD9FF00C0E5FF01C0E5FF02C046
:10331000E5FF03C0E5FF020EDBCF00F0016A5BC3EF
:1033200002F0036A0250002603500122E56A800E73
:10333000E56E0150E56E0050E56E68EC13F0006E2E
:10334000F3CF01F0040EE126600E0026000E0122EC
:1033500000C0E9FF01C0EAFFEFCF00F00050E4CF6A
:1033600003F0E4CF02F0E4CF01F0E4CF00F0E4CFCB
:10337000D9FF120000C0E5FF01C0E5FF02C0E5FF74
:10338000010E006EEBEC1AF0016E01C002F001506C
:1033900023E00050E56ED7EC1DF0016EE6520150BF
:1033A00010E10A0E005C0BE20A0E006EE56ED7EC2F
:1033B0001DF0016EE652015004E1E8680ED0E868A5
:1033C0000CD00150021802E0E86807D0002A1B0E5A
:1033D000005CD8E3E86801D0E86AE4CF02F0E4CF0B
:1033E00001F0E4CF00F01200F3CFE5FFF4CFE5FFEA
:1033F000E9CFE5FFEACFE5FFFACFE5FFFBCFE5FF39
:10340000030120510F01356F030121510F01366F68
:10341000D650336FD750346FF2A411D00301203F40
:1034200001D0212BF294030120510F01356F0301CC
:1034300021510F01366FD650336FD750346FE4CF20
:10344000FBFFE4CFFAFFE4CFEAFFE4CFE9FFE4CFEC
:10345000F4FFE4CFF3FF110000C0E5FF01C0E5FF7A
:1034600002C0E5FF03C0E5FF47C300F048C301F019
:103470000301473F01D0482B0050E56ED7EC1DF00B
:10348000E652036E026A47C300F048C301F003012D
:10349000473F01D0482B0050E56ED7EC1DF0E652B7
:1034A000016A02120150031203C0F3FF0250E4CF7D
:1034B00003F0E4CF02F0E4CF01F0E4CF00F012001B
:1034C00000C0E5FF01C0E5FF02C0E5FF006E000E91
:1034D00003012725016E026A0F0E022201C0E9FFD7
:1034E00002C0EAFF00C0EFFF220E275D01E2272B9A
:1034F00000500A0A0FE103012751E56E800EE56EC8
:103500000F0EE56E000EE56E7BEC11F0040EE12669
:103510000301276BE4CF02F0E4CF01F0E4CF00F029
:1035200012000301226B0301236B030124698B80CA
:103530009490B06A3F0EAF6EB886AC8AAC84AC8C07
:10354000AC90AB8CAB8E0301526B03014C6B03014F
:103550004F6B0301506B0301516B000EE56AD7EC12
:103560001DF00301266FE6529F989F9A010E0301FA
:10357000256F04017D6B7E6B2F0E7F6FE5EC1DF0D8
:1035800012000301205104017B6F0301215104014A
:103590007C6FD650796FD7507A6F7B510301201919
:1035A00005E104017C51030121190CE003012051C4
:1035B00004017B6F0301215104017C6FD650796FA8
:1035C000D7507A6F7CC4E9FF7BC4F4FF7AC4F3FF61
:1035D00004017951120000C0E5FF01C0E5FF0301BD
:1035E00050510301591905E00301505103014F19CE
:1035F00002E1E86A15D050C300F00301502B016AC4
:10360000600E0026000E012200C0E9FF01C0EAFFA3
:10361000EFCF00F05051800A02E10301506B0050DF
:10362000E4CF01F0E4CF00F0120000C0E5FF6CEC45
:103630001EF00401896B806B8983006A89B3002ABC
:103640000050010BE844F46E8051FD0BF410806FC4
:10365000D58ED59CD59AD588D596D594D582D5804A
:10366000F28AF184D08EF28EF28CBA80FF0EBB68A3
:10367000BA84E4CF00F01200D9CFE5FFE1CFD9FF43
:1036800000C0E5FF01C0E5FF020EDBCF00F00050F7
:10369000020DF450016EF3CF00F0D30E0026040E9D
:1036A000012200C0E9FF01C0EAFFEECF00F0EFCF3A
:1036B00001F001C0F3FF0050E4CF01F0E4CF00F0CF
:1036C000E4CFD9FF1200D9CFE5FFE1CFD9FF00C089
:1036D000E5FF01C0E5FF020EDBCF00F00050020D58
:1036E000F450016EF3CF00F0E00E0026000E012230
:1036F00000C0E9FF01C0EAFFEECF00F0EFCF01F01C
:1037000001C0F3FF0050E4CF01F0E4CF00F0E4CFBC
:10371000D9FF1200D9CFE5FFE1CFD9FF00C0E5FF07
:1037200001C0E5FF02C0E5FF020EDBCF00F047C39A
:1037300001F048C302F00301473F01D0482B00507D
:10374000E56E0150E56ED5EC1BF0E652E652E4CF93
:1037500002F0E4CF01F0E4CF00F0E4CFD9FF120093
:10376000D8CFE5FFE0CFE5FFE56EF3CFE5FFF4CF7F
:10377000E5FFE9CFE5FFEACFE5FFFACFE5FFFBCFB5
:10378000E5FFE3EC09F0E4CFFBFFE4CFFAFFE4CF81
:10379000EAFFE4CFE9FFE4CFF4FFE4CFF3FFE45026
:1037A000E4CFE0FFE4CFD8FF1000D9CFE5FFE1CFB1
:1037B000D9FF00C0E5FF020EDBCF00F0030EDBCF28
:1037C000A8FF00C0A9FFA69EA69CA684F29EF29C1C
:1037D000550EA76EAA0EA76EA682A6A202D0000062
:1037E000FCD7A694F28EF28CE4CF00F0E4CFD9FFA0
:1037F0001200E8AE0AD0F3CFEAFFEE50EECFF3FFAF
:10380000EECFF4FFEECFE9FF1200E8BC7FEF1EF031
:10381000E9CFF6FFF3CFF7FFF86E0900F550090086
:10382000F5CFF3FF0900F5CFF4FF0900F5CFE9FF6D
:10383000120000C0E5FF01C0E5FF030122510301B2
:10384000231902E1E86A0FD0000E03012325006E60
:10385000016A010E012200C0E9FF01C0EAFFEFCFBB
:1038600000F0232B0050E4CF01F0E4CF00F0120071
:10387000F2CFEAFFF29EA69EA69CA684E9CFA9FFFE
:10388000F3CFAAFFE4CFA8FF44EC1EF0F4CFA8FFCB
:1038900044EC1EF0F6CFA8FF44EC1EF0F7CFA8FFD3
:1038A00044EC1EF0A694EABEF28E1200F2CFF6FFB0
:1038B000F29EA69EA69CE9CFA9FFF3CFAAFFA68001
:1038C000A850A94AAA2AA680A8CFF3FFA94AAA2AE3
:1038D000A680A8CFF4FFA94AAA2AA680A8CFEAFF0B
:1038E000F6BEF28E1200E8AE08D0F3CFEAFFEE503B
:1038F000EECFF3FFEECFF4FF1200E8BC87EF1EF02F
:10390000E9CFF6FFF3CFF7FFF86E0900F550090095
:10391000F5CFF3FF0900F5CFF4FF1200F2CFEAFF75
:10392000F29EA69EA69CA684E9CFA9FFF3CFAAFF8C
:10393000E4CFA8FF44EC1EF0F4CFA8FF44EC1EF047
:10394000F6CFA8FF44EC1EF0A694EABEF28E120059
:10395000D9CFE5FFE1CFD9FF00C0E5FF020EDBCFF5
:1039600000F000C026F30050E56E000EE56AD5ECCD
:103970001BF0E652E652E4CF00F0E4CFD9FF12008C
:10398000F2CFF6FFF29EA69EA69CE9CFA9FFF3CF49
:10399000AAFFA680A850A94AAA2AA680A8CFF3FF0A
:1039A000A94AAA2AA680A8CFF4FFF6BEF28E12007A
:1039B00000C0E5FF01C0E5FF600E03015025006E69
:1039C000016A000E012200C0E9FF01C0EAFFEFCF4B
:1039D00000F00050E4CF01F0E4CF00F01200D9CFA6
:1039E000E5FFE1CFD9FF00C0E5FF020EDBCF00F01D
:1039F000610E005C05E37B0E005C02E2010E01D06B
:103A0000E86AE4CF00F0E4CFD9FF120000C0E5FF80
:103A100001C0E5FF47C300F048C301F00301473F81
:103A200001D0482B0050E56ED7EC1DF0E652E4CFF4
:103A300001F0E4CF00F01200D9CFE5FFE1CFD9FFCC
:103A400000C0E5FF020EDBCF00F000C025F3005000
:103A500004E1E5EC1DF09D9A9D98E4CF00F0E4CFE1
:103A6000D9FF1200E8AE06D0F3CFEAFFEE50EECF5A
:103A7000F3FF1200E8BC7DEF1EF0E9CFF6FFF3CFB5
:103A8000F7FFF86E0900F5500900F5CFF3FF1200BB
:103A9000F2CFEAFFF29EA69EA69CA684E9CFA9FFDC
:103AA000F3CFAAFFE4CFA8FF44EC1EF0F4CFA8FFA9
:103AB00044EC1EF0A694EABEF28E120012EEFFF065
:103AC00022EEFFF0F86AA68EA69CE9680E0EEA6E5A
:103AD0000068000EED6A0050FDE1DDEC16F006EC2A
:103AE00000F0FFD7F2CFF6FFF29EA69EA69CE9CF8C
:103AF000A9FFF3CFAAFFA680A850A94AAA2AA680A8
:103B0000A8CFF3FFF6BEF28E1200F2CFEAFFF29ECC
:103B1000A69EA69CA684E9CFA9FFF3CFAAFFE4CF77
:103B2000A8FF44EC1EF0A694EABEF28E1200E8AEA6
:103B30000BD0F3CFEAFFE4CFEEFFF4CFEEFFF6CFEA
:103B4000EEFFF7CFEEFF1200E8BC81EF1EF012008F
:103B5000E8AE04D0F3CFEAFFEE501200E8BC7BEFF2
:103B60001EF0E9CFF6FFF3CFF7FFF86E0900F5502E
:103B7000120000000000FF00000000020002000030
:103B800000420000000000000000000000000000F3
:103B9000E8AE09D0F3CFEAFFE4CFEEFFF4CFEEFFBB
:103BA000F6CFEEFF1200E8BC89EF1EF01200D9CF6D
:103BB000E5FFE1CFD9FF020EDBCFA9FFA69CA69EB1
:103BC000A680A850E4CFD9FF1200ACA2FED78B800C
:103BD000AE500000AE50AB98AB88AB869D8A9D98E6
:103BE000120025642000F2CFF6FFF29EA69EA69C4E
:103BF000E9CFA9FFF3CFAAFFA680A850F6BEF28EA8
:103C00001200E8AE07D0F3CFEAFFE4CFEEFFF4CF27
:103C1000EEFF1200E8BC85EF1EF01200700ED36EAE
:103C20009B8CFF0E9268936894689668626AF19E16
:103C3000120000C0E5FFBAEC19F0006E005001E17F
:103C4000FF00E4CF00F012000F01456B900E0F0152
:103C5000446F030E0F01436F0F01458F1200E8AE52
:103C600005D0F3CFEAFFE4CFEEFF1200E8BC83EF0C
:103C70001EF01200D9CFE5FFE1CFD9FF020EDBCF56
:103C80002BF3E4CFD9FF1200550EA76EAA0EA76E34
:103C9000A682A6B2FED7A94AAA2A010E0401376F4E
:103CA0001C0E0301476F486B12000401376B1C0E9A
:103CB0000301476F486B12000100723B00002003B4
:103CC00000001D00000015EC1BF091EC1AF0120032
:103CD000ACA2FED7AD6E12000EEC1EF01200030176
:103CE0005051120003015A511200030125511200D4
:103CF000E8CF7FFF1200F3EF1DF072EF1DF056EFDB
:103D00001CF038EF1CF085EF1DF048EF1DF0C0EF00
:063D10001CF08EEF1CF018
:020000040030CA
:010006008574
:00000001FF
