:020000040000FA
:1000000015EF1DF0C96E1200ABEF19F077EC08F098
:10001000ECEC16F0FDD7120067EF1BF0D9CFE5FF2F
:10002000E1CFD9FF00C0E5FF01C0E5FF02C0E5FF59
:1000300003C0E5FF04C0E5FF05C0E5FF06C0E5FF1E
:1000400007C0E5FF08C0E5FF09C0E5FF0AC0E5FFFE
:100050000BC0E5FF0CC0E5FF0DC0E5FF0EC0E5FFDE
:100060000FC0E5FF10C0E5FF11C0E5FF12C0E5FFBE
:1000700013C0E5FF14C0E5FF15C0E5FF16C0E5FF9E
:1000800017C0E5FF18C0E5FF19C0E5FF1AC0E5FF7E
:100090001BC0E5FF1CC0E5FF1DC0E5FF1EC0E5FF5E
:1000A000020EDBCF00F0030EDBCF01F0040EDBCF3E
:1000B00002F0050EDBCF03F0060EDBCF04F0070ED7
:1000C000DBCF05F0080EDBCF06F0090EDBCF07F023
:1000D0000A0EDBCF08F0096A0A6A02C00DF00D5063
:1000E000800A0DE102500301466F0150456F005038
:1000F000446F030E016E440E006E800E026E03C04C
:10010000E9FF04C0F3FF05505FEC1DF00B6E0B50D0
:10011000D8B4C4EF03F00B50250A02E0ABEF03F0B4
:100120000C6A0D6A0E6A0F6A106A0A0E116E126A64
:10013000136A146A200E156E1668176A2B0E186E55
:10014000032A02E3044A052A03C0E9FF04C0F3FFBF
:1001500005505FEC1DF0196E250A13E11950E56E8C
:100160000250E56E0150E56E0050E56E9CEC11F01A
:10017000040EE126094A0A2A032A02E3044A052A50
:10018000BED71950300A06E1300E156E032A02E37D
:10019000044A052A03C0E9FF04C0F3FF05505FECE1
:1001A0001DF02D0A06E1010E146E032A02E3044A33
:1001B000052A03C0E9FF04C0F3FF05505FEC1DF002
:1001C000200A08E1010E176E200E186E032A02E3C2
:1001D000044A052A03C0E9FF04C0F3FF05505FECA1
:1001E0001DF02B0A06E1010E176E032A02E3044AF2
:1001F000052A03C0E9FF04C0F3FF05505FEC1DF0C2
:10020000196E310E195C2BE33A0E195C28E203C01B
:1002100019F004C01AF005C01BF019C0E9FF1AC09C
:10022000F3FF1B505FEC1DF01C6E300E1C5C11E3E5
:100230003A0E1C5C0EE213500A0DF3CF1DF01D5058
:100240001C26D00E1C24136E192A02E31A4A1B2AFC
:10025000E4D719C003F01AC004F01BC005F003C0B6
:10026000E9FF04C0F3FF05505FEC1DF02E0A2DE1FD
:10027000032A02E3044A052A166A03C019F004C0DF
:100280001AF005C01BF019C0E9FF1AC0F3FF1B509C
:100290005FEC1DF01C6E300E1C5C11E33A0E1C5C12
:1002A0000EE216500A0DF3CF1DF01D501C26D00E85
:1002B0001C24166E192A02E31A4A1B2AE4D719C015
:1002C00003F01AC004F01BC005F003C0E9FF04C02E
:1002D000F3FF05505FEC1DF0196E6C0A07E1010E8B
:1002E0000C6E032A02E3044A052A09D01950680A51
:1002F00006E1010E0E6E032A02E3044A052A03C03A
:10030000E9FF04C0F3FF05505FEC1DF0750A06E13C
:10031000010E106E032A02E3044A052A03C0E9FF16
:1003200004C0F3FF05505FEC1DF0196E730A05E180
:10033000010E0D6E200E156E3FD01950780A03E1A4
:10034000100E116E39D01950580A05E1100E116EB9
:10035000010E126E31D01950630A02E1116A2CD0DD
:1003600019506F0A03E1080E116E26D01950660A63
:1003700003E1010E0F6E20D01950640A1DE01950E0
:10038000690A1AE0105005E0FF0E03260422052238
:1003900013D01950E56E0250E56E0150E56E005025
:1003A000E56E9CEC11F0040EE126094A0A2A032AA4
:1003B00002E3044A052AA3D60D5021E00650030F9C
:1003C0000D6E000E0720196E000E08201A6E0DC06B
:1003D00006F019C007F01AC008F0FD0E0D26FF0E3A
:1003E00019221A220DC0E9FF19C0F3FF1A502AEC96
:1003F0001CF00D6EF3CF19F0F4CF1AF0FDD00F50B2
:100400000DE0000E1A6E080E196E100E0D6E040E21
:100410000626000E072208221668EED016680C5039
:1004200023E00650040F0C6E000E07200F6E000E26
:1004300008201B6E0CC006F00FC007F01BC008F0B0
:10044000FC0E0C26FF0E0F221B220CC0E9FF0FC072
:10045000F3FF1B50B0EC1BF00C6EF3CF0FF0F4CF9A
:100460001BF0E9CF1CF067D00E502FE00650020FB2
:100470000E6E000E07201D6E000E08201E6E0EC0B0
:1004800006F01DC007F01EC008F0FE0E0E26FF0E7F
:100490001D221E220EC0E9FF1DC0F3FF1E50E9EC15
:1004A0001CF00E6E0EC00CF00F6A1B6A1C6A115015
:1004B0000A0A03E11050D8B43ED00C500E6E0EC0A4
:1004C0000CF00F6A1B6A1C6A36D00650020F0E6EC3
:1004D000000E07201D6E000E08201E6E0EC006F0D6
:1004E0001DC007F01EC008F0FE0E0E26FF0E1D22D6
:1004F0001E220EC0E9FF1DC0F3FF1E50E9EC1CF0E8
:100500000E6EF3CF1DF00EC00CF01DC00FF0E86AA8
:100510001DBEFF0E1B6E1C6E11500A0A02E1105028
:100520000AE00C500E6E0F501D6E0EC00CF01DC078
:100530000FF01B6A1C6A040E196EF40E0D6E800E0D
:100540001A6E1150D8B440D0105013E01150E56E1F
:10055000040EE56EF40EE56E1C50E56E1B50E56E64
:100560000F50E56E0C50E56E69EC0DF0070EE126BC
:1005700012D01150E56E040EE56EF40EE56E1C50BF
:10058000E56E1B50E56E0F50E56E0C50E56E3EECCF
:1005900015F0070EE12617502FE00DC0E9FF19C036
:1005A000F3FF1A505FEC1DF02D0A26E0FF0E0D261A
:1005B00019221A2218C0E5FF0DC0E9FF19C0F3FF88
:1005C0001A50E6EC1DF018D00CC0E5FF0DC0E9FF95
:1005D00019C0F3FF1A50E6EC1DF00D50010F0C6E20
:1005E000000E19200E6E000E1A20E56A0CC0E9FFFD
:1005F0000EC0F3FFE6EC1DF00DC00CF019C00EF0BC
:100600001AC00FF013C010F0105010E00CC0E9FF3A
:100610000EC0F3FF0F505FEC1DF0176E175006E091
:100620000C2A02E30E4A0F2A1006EED710C013F070
:1006300014501EE109C00CF00AC00EF010C00FF0FB
:100640000F5010E01550E56E0250E56E0150E56E5A
:100650000050E56E9CEC11F0040EE1260C4A0E2AC7
:100660000F06EED70CC009F00EC00AF00FC013F051
:1006700016C00CF00DC00DF019C00EF01AC00FF02E
:1006800009C010F00AC015F00DC0E9FF0EC0F3FF5D
:100690000F505FEC1DF0166E1650D8B43ED00CC053
:1006A00016F0176A161E171E1650171005E00CC01C
:1006B00016F00C06165031E00DC0E9FF0EC0F3FF36
:1006C0000F505FEC1DF0116E125010E01150E56EEE
:1006D000A6EC1CF0166EE652165004E0DF0E111464
:1006E000166E02D011C016F016C011F01150E56E52
:1006F0000250E56E0150E56E0050E56E9CEC11F085
:10070000040EE1260D2A02E30E4A0F2A104A152A8A
:100710001350D8B4B9D71306B7D710C009F015C015
:100720000AF014502BE010C00CF015C00DF013C0EF
:100730000EF00E501FE0200EE56E0250E56E0150E7
:10074000E56E0050E56E9CEC11F0040EE1260C4ABB
:100750000D2A0E06EED70B50E56E0250E56E0150E5
:10076000E56E0050E56E9CEC11F0040EE126094A9E
:100770000A2A04D00CC009F00DC00AF0032A02E3D3
:10078000044A052A7FEF00F00AC0F3FF0950E4CFC6
:100790001EF0E4CF1DF0E4CF1CF0E4CF1BF0E4CF5B
:1007A0001AF0E4CF19F0E4CF18F0E4CF17F0E4CF5B
:1007B00016F0E4CF15F0E4CF14F0E4CF13F0E4CF5B
:1007C00012F0E4CF11F0E4CF10F0E4CF0FF0E4CF5B
:1007D0000EF0E4CF0DF0E4CF0CF0E4CF0BF0E4CF5B
:1007E0000AF0E4CF09F0E4CF08F0E4CF07F0E4CF5B
:1007F00006F0E4CF05F0E4CF04F0E4CF03F0E4CF5B
:1008000002F0E4CF01F0E4CF00F0E4CFD9FF120012
:100810003C4E4F20464C4F41543E000000C0E5FF87
:1008200001C0E5FF02C0E5FF03C0E5FF04C0E5FF2E
:1008300005C0E5FF06C0E5FF07C0E5FF08C0E5FF0E
:1008400009C0E5FF0AC0E5FF0BC0E5FF0CC0E5FFEE
:10085000006A016A026A040E025CD8B0E8D101C0E5
:1008600003F0012A100E035CD8B0E1D103012E2B56
:10087000100E2E5D01E32E6B03012E39E8441F0B91
:10088000036E046A490E0326030E042203C0E9FF27
:1008900004C0EAFFEFCF03F0070E2E15046E010E21
:1008A000056E000E066E045006E0E86CD890053622
:1008B0000636010FFCE3076A0350051607500616BB
:1008C00005500610D880E866D890056A05360550B0
:1008D000D8A4C1D703012E51020DF450046EF3CFFA
:1008E00003F0E00E0324056E000E0420066E05C022
:1008F000E9FF06C0EAFFEECF05F0EFCF06F00301F7
:100900002BA19DD0930E0324076E040E0420086EC5
:1009100007C0E9FF08C0EAFFEECF07F0EFCF08F00D
:100920000650800FF36E0850800FF35C02E1075011
:10093000055C03E2056A066A60D0B30E0326040E66
:10094000042203C0E9FF04C0EAFFEECF03F0EFCFBB
:1009500004F00450800FF36E0650800FF35C02E148
:100960000550035C04E205683F0E066E46D0075052
:10097000055C096E085006580A6EE86A0ABEFF0E4A
:100980000B6EE56E0B50E56E0A50E56E0950E56E94
:10099000E56AE56A400EE56E000EE56A5DEC0BF077
:1009A000096EF3CF0AF0F4CF0BF0E9CF0CF0080E8C
:1009B000E1260750035C076E08500458086EE86A89
:1009C00008BEFF0E036EE56E0350E56E0850E56E3F
:1009D0000750E56E0C50E56E0B50E56E0A50E56E63
:1009E0000950E56EE2EC0EF0036EF3CF04F0080E52
:1009F000E1260350056E0450066E03012A51800F54
:100A0000F36E0650800FF35C02E10550295D03E3AD
:100A1000056A066A14D003012951FF08036E3F0ED0
:100A20002A55046E0650800FF36E0450800FF35C5D
:100A300002E10350055C03E305683F0E066E030107
:100A40002E51020DF450046EF3CF03F0590E03261D
:100A5000040E042203C0E9FF04C0EAFFEECF03F056
:100A6000EFCF04F00350055C036E04500658046E8B
:100A7000D88004AED89004E3041E036CD8B4042AD2
:100A8000022A03012A51800FF36E0450800FF35C99
:100A900002E10350295DD8B0DED603012E51020DCC
:100AA000F450086EF3CF07F0590E0726040E082203
:100AB00007C0E9FF08C0EAFF05C0EEFF06C0EFFF70
:100AC00003012BA55AD003012E51020DF450086EDC
:100AD000F3CF07F0D30E0724096E040E08200A6E28
:100AE00009C0E9FF0AC0EAFFEECF0BF0EFCF0CF030
:100AF0000B500C10D8B441D0390E0726040E082232
:100B000007C0E9FF08C0EAFFEECF07F0EFCF08F01B
:100B10000750055C036E08500658046E03101CE075
:100B20000450800F800F02E1010E035C076A073654
:100B30000C50800F800F02E1010E0B5C0B6A0B362C
:100B400007500B1809E109C0E9FF0AC0EAFF03C01A
:100B5000EEFF04C0EFFF7FD603012E51020DF450CB
:100B6000046EF3CF03F0D30E0326040E042203C059
:100B7000E9FF04C0EAFFEE6AEF6A03012BA343D04A
:100B800000500EE100C003F0002A046A2F0E032675
:100B9000030E042203C0E9FF04C0EAFF420EEF6E19
:100BA00000C003F0002A046A2F0E0326030E04225D
:100BB000640E03012E25076E03C0E9FF04C0EAFF9F
:100BC00007C0EFFF00C003F0002A046A2F0E0326BF
:100BD000030E04220650076E03C0E9FF04C0EAFFBB
:100BE00007C0EFFF00C003F0002A046A2F0E03269F
:100BF000030E04220550076E03C0E9FF04C0EAFF9C
:100C000007C0EFFF28D62EC303F00650E56E05504F
:100C1000E56EE56A0350E56E000EE56E250EE56EA5
:100C2000440EE56E01EC18F0070EE12614D602C062
:100C300001F000501DE003012BA31AD000C002F008
:100C4000002A036A2F0E0226030E032202C0E9FFC8
:100C500003C0EAFF0A0EEF6E0050E56E800EE56EEF
:100C6000030EE56E2F0EE56EA8EC12F0040EE126E1
:100C70000150E4CF0CF0E4CF0BF0E4CF0AF0E4CF66
:100C800009F0E4CF08F0E4CF07F0E4CF06F0E4CFBA
:100C900005F0E4CF04F0E4CF03F0E4CF02F0E4CFBA
:100CA00001F0E4CF00F0120000C0E5FF01C0E5FF55
:100CB00002C0E5FF03C0E5FF04C0E5FF05C0E5FF96
:100CC00006C0E5FF07C0E5FF08C0E5FF09C0E5FF76
:100CD0000AC0E5FFC2A204D003012C5160EF08F066
:100CE00003012D51D8B414D103012C51020DF4503D
:100CF000016EF3CF00F0E00E0026000E012200C0CE
:100D0000E9FF01C0EAFFEECF00F0EFCF01F0230EC4
:100D10002C25026E036A040E032202C0E9FF03C001
:100D2000EAFFEFCF02F00250FF0A01E152D0023891
:100D30000F0B036E920E0324046E056A0F0E05223C
:100D4000066A920E03260F0E062203C0E9FF06C0B4
:100D5000EAFFEFCF03F0070E0214066E010E076ED6
:100D6000065005E0E86CD8900736010FFDE3071C3C
:100D7000066E031604C0E9FF05C0EAFF03C0EFFFDB
:100D800002380F0B036E890E0324046E056A0F0EE2
:100D90000522066A890E03260F0E062203C0E9FF0C
:100DA00006C0EAFFEFCF03F0070E0214066E010E35
:100DB000076E065005E0E86CD8900736010FFDE39A
:100DC000071C066E031604C0E9FF05C0EAFF03C056
:100DD000EFFF03012C51020DF450046EF3CF03F02A
:100DE000E00E0326000E042201C006F000C005F04C
:100DF0000550005C056E06500158066EC3CF07F023
:100E0000086A0750052608500622C4CF07F0086A72
:100E100007500A6E096A095005260A50062203C0C7
:100E2000E9FF04C0EAFF05C0EEFF06C0EFFF0301C3
:100E30002851010A01E06AD003012C51020DF4503F
:100E4000046EF3CF03F0E00E0324056E000E0420C1
:100E5000066E05C0E9FF06C0EAFFEECF00F0EFCF57
:100E600001F0930E0326040E042203C0E9FF04C020
:100E7000EAFFEECF05F0EFCF06F09C0E0526D8A0D6
:100E800006060150800FF36E0650800FF35C02E1FE
:100E90000550005C0EE20050640F056E000E01204C
:100EA000066E03C0E9FF04C0EAFF05C0EEFF06C0FE
:100EB000EFFF03012C51020DF450046EF3CF03F049
:100EC000B30E0326040E042203C0E9FF04C0EAFFA8
:100ED000EECF05F0EFCF06F0640E0526D8B0062A57
:100EE0000650800FF36E0150800FF35C02E100505A
:100EF000055C0CE29C0E0026D8A0010603C0E9FFA9
:100F000004C0EAFF00C0EEFF01C0EFFF03012D6B3C
:100F100003012C2B100E2C5D01E32C6B03012C39EB
:100F2000E8441F0B006E016A490E0026030E0122E1
:100F300000C0E9FF01C0EAFFEFCF00F0070E2C155B
:100F4000016E010E036E000E046E015006E0E86CA7
:100F5000D89003360436010FFCE3056A00500316EF
:100F60000550041603500410D880E866D890036A30
:100F700003360350D8A4A2D0230E03012C25006E03
:100F8000016A0F0E012200C0E9FF01C0EAFFEFCFA6
:100F900000F00044E844FC0B016E0128C26E230EF1
:100FA0002C25006E016A040E012200C0E9FF01C079
:100FB000EAFFEFCF02F00250FF0A01E17BD00238D6
:100FC0000F0B006E920E0024016E036A0F0E0322B7
:100FD000046A920E00260F0E042200C0E9FF04C02E
:100FE000EAFFEFCF00F0070E0214046E010E056E4B
:100FF000045005E0E86CD8900536010FFDE305507C
:10100000001201C0E9FF03C0EAFF00C0EFFF380E85
:10101000006E0F0E016E02380F0B036E046A035050
:10102000002604500122380E056E0F0E066E055084
:1010300003260650042203C0E9FF04C0EAFFEFCFF5
:1010400003F0070E0216010E046E025005E0E86C74
:10105000D8900436010FFDE30450031200C0E9FFED
:1010600001C0EAFF03C0EFFF0F014583000000004D
:1010700045930F0144930BC0E5FFF2CF0BF0F29EB6
:10108000448100000000000000000000000000009B
:101090000000000000000000000000000000000050
:1010A0000000000000000000000044910BBEF28E22
:1010B000E4CF0BF0C282010E03012D6F03012C510E
:1010C000E4CF0AF0E4CF09F0E4CF08F0E4CF07F072
:1010D000E4CF06F0E4CF05F0E4CF04F0E4CF03F072
:1010E000E4CF02F0E4CF01F0E4CF00F0120000C042
:1010F000E5FF01C0E5FF02C0E5FF03C0E5FF04C056
:10110000E5FF1AEC1EF094928B9278EC1AF0F3CF74
:1011100001F0F4CF02F0E9CF03F0880F0401336F40
:10112000130E0120346F000E0220356F000E0320D5
:10113000366F25EC12F0DBEC1DF09280800E006E15
:101140000F0E016E0F0E036E380E002603500122A3
:10115000800E026E0F0E036E800E005E0350015A69
:101160000F0E046E380E0226045003220F0E046E7A
:10117000800E025E0450035A02C0E9FF03C0EAFF7A
:10118000EFCF02F0028000C0E9FF01C0EAFF02C019
:10119000EFFF000EE56AE56ADBEC14F0E652E6527A
:1011A0009282800E006E0F0E016E0F0E036E380ECF
:1011B000002603500122800E026E0F0E036E800E79
:1011C000005E0350015A0F0E046E380E02260450C2
:1011D00003220F0E046E800E025E0450035A02C0FA
:1011E000E9FF03C0EAFFEFCF02F0028200C0E9FF8F
:1011F00001C0EAFF02C0EFFF010EE56EE56EDBEC19
:1012000014F0E652E6529284800E006E0F0E016ECC
:101210000F0E036E380E002603500122800E026E60
:101220000F0E036E800E005E0350015A0F0E046E07
:10123000380E0226045003220F0E046E800E025E4A
:101240000450035A02C0E9FF03C0EAFFEFCF02F0E7
:10125000028400C0E9FF01C0EAFF02C0EFFF020EF6
:10126000E56EE56EDBEC14F0E652E6529486820EF3
:10127000006E0F0E016E0F0E036E380E0026035027
:1012800001220F0E036E800E005E0350015A820E83
:10129000026E0F0E036E0F0E046E380E02260450FF
:1012A00003220F0E046E800E025E0450035A02C029
:1012B000E9FF03C0EAFFEFCF02F0028600C0E9FFBA
:1012C00001C0EAFF02C0EFFF0F0EE56E030EE56EF0
:1012D000DBEC14F0E652E6529484820E006E0F0EA0
:1012E000016E0F0E036E380E0026035001220F0E02
:1012F000036E800E005E0350015A820E026E0F0EC6
:10130000036E0F0E046E380E0226045003220F0ED9
:10131000046E800E025E0450035A02C0E9FF03C04F
:10132000EAFFEFCF02F0028400C0E9FF01C0EAFF4C
:1013300002C0EFFF0E0EE56E040EE56EDBEC14F05E
:10134000E652E6529488820E006E0F0E016E0F0E6A
:10135000036E380E0026035001220F0E036E800E1E
:10136000005E0350015A820E026E0F0E036E0F0EC6
:10137000046E380E0226045003220F0E046E800EF7
:10138000025E0450035A02C0E9FF03C0EAFFEFCF38
:1013900002F0028800C0E9FF01C0EAFF02C0EFFFCF
:1013A000100EE56E050EE56EDBEC14F0E652E6522B
:1013B000948A820E006E0F0E016E0F0E036E380EB1
:1013C0000026035001220F0E036E800E005E0350B4
:1013D000015A820E026E0F0E036E0F0E046E380E4F
:1013E0000226045003220F0E046E800E025E04508B
:1013F000035A02C0E9FF03C0EAFFEFCF02F0028AFE
:1014000000C0E9FF01C0EAFF02C0EFFF110EE56E68
:10141000060EE56EDBEC14F0E652E652E4CF04F083
:10142000E4CF03F0E4CF02F0E4CF01F0E4CF00F02A
:101430001200430025630000800EE56E040EE56E89
:10144000B30EE56E50EC16F0030EE126800EE56E4D
:10145000040EE56E930EE56E50EC16F0030EE126D9
:10146000800EE56E040EE56EB50EE56E50EC16F0DE
:10147000030EE126800EE56E040EE56E950EE56E18
:1014800050EC16F0030EE126800EE56E040EE56EBC
:10149000B70EE56E50EC16F0030EE126800EE56EF9
:1014A000040EE56E970EE56E50EC16F0030EE12685
:1014B000800EE56E040EE56EB90EE56E50EC16F08A
:1014C000030EE126800EE56E040EE56E990EE56EC4
:1014D00050EC16F0030EE126800EE56E040EE56E6C
:1014E000BB0EE56E50EC16F0030EE126800EE56EA5
:1014F000040EE56E9B0EE56E50EC16F0030EE12631
:10150000800EE56E040EE56EBD0EE56E50EC16F035
:10151000030EE126800EE56E040EE56E9D0EE56E6F
:1015200050EC16F0030EE126800EE56E040EE56E1B
:10153000BF0EE56E50EC16F0030EE126800EE56E50
:10154000040EE56E9F0EE56E50EC16F0030EE126DC
:10155000800EE56E040EE56EC10EE56E50EC16F0E1
:10156000030EE126800EE56E040EE56EA10EE56E1B
:1015700050EC16F0030EE126800EE56E040EE56ECB
:10158000C30EE56E50EC16F0030EE126800EE56EFC
:10159000040EE56EA30EE56E50EC16F0030EE12688
:1015A000800EE56E040EE56EC50EE56E50EC16F08D
:1015B000030EE126800EE56E040EE56EA50EE56EC7
:1015C00050EC16F0030EE126800EE56E040EE56E7B
:1015D000C70EE56E50EC16F0030EE126800EE56EA8
:1015E000040EE56EA70EE56E50EC16F0030EE12634
:1015F000800EE56E040EE56EC90EE56E50EC16F039
:10160000030EE126800EE56E040EE56EA90EE56E72
:1016100050EC16F0030EE126800EE56E040EE56E2A
:10162000CB0EE56E50EC16F0030EE126800EE56E53
:10163000040EE56EAB0EE56E50EC16F0030EE126DF
:10164000800EE56E040EE56ECD0EE56E50EC16F0E4
:10165000030EE126800EE56E040EE56EAD0EE56E1E
:1016600050EC16F0030EE126800EE56E040EE56EDA
:10167000CF0EE56E50EC16F0030EE126800EE56EFF
:10168000040EE56EAF0EE56E50EC16F0030EE1268B
:10169000800EE56E040EE56ED10EE56E50EC16F090
:1016A000030EE126800EE56E040EE56EB10EE56ECA
:1016B00050EC16F0030EE1261200D9CFE5FFE1CF82
:1016C000D9FF00C0E5FF01C0E5FF02C0E5FF03C090
:1016D000E5FF04C0E5FF05C0E5FF06C0E5FF07C064
:1016E000E5FF020EDBCF00F0030EDBCF01F0040EAE
:1016F000DBCF02F0050EDBCF03F0060EDBCF04F0EC
:10170000070EDBCF05F0080EDBCF06F0090EDBCFAE
:1017100007F000500401816F0150826F0250836F07
:101720000350846F04500401856F0550866F065086
:10173000876F0750886F0401815104018703F4CF3C
:1017400001F0F3CF00F0005004018C6F01508D6F59
:101750000401815104018503F4CF01F0F3CF00F0BF
:10176000005004018A6F01508B6F04018451040101
:101770008503F3CF00F004018D51002600508D6FDA
:101780000401835104018603F3CF01F001500026C8
:10179000005004018D6F0401835104018503F4CFCF
:1017A00001F0F3CF00F004018C5100268D5101228D
:1017B00000508C6F01508D6F04018251040186032B
:1017C000F4CF03F0F3CF02F00250002603500122C1
:1017D000005004018C6F01508D6F0401825104018F
:1017E0008703F3CF00F000500401916F0401825190
:1017F00004018503F4CF01F0F3CF00F000500401A1
:101800008F6F0150906F0401815104018803F3CF61
:1018100000F000500301406F040181510401860370
:10182000F4CF01F0F3CF00F0005003013E6F015000
:101830003F6F04018E6B03013D6B04018E51040167
:101840008A25006E04018F5104018B21016E040171
:10185000905104018C21026E0401915104018D21EB
:10186000036E00508A6F01508B6F02508C6F0350D3
:101870008D6F03013D5104018A25006E03013E5125
:1018800004018B21016E03013F5104018C21026E82
:101890000301405104018D21036E03C0E9FF02C022
:1018A000F4FF01C0F3FF0050E4CF07F0E4CF06F0EF
:1018B000E4CF05F0E4CF04F0E4CF03F0E4CF02F08E
:1018C000E4CF01F0E4CF00F0E4CFD9FF120000C074
:1018D000E5FF01C0E5FF03012551D8B4F5D09DA86F
:1018E0001DD09EA81BD0030154510301511905E1DD
:1018F0009CEC1DF00301516BE7D0000E0301542551
:10190000006E016A040E012200C0E9FF01C0EAFF77
:10191000EFCF4DF3542B4DC3ADFFD6D09EAAD4D0FC
:10192000ABA205D0030152819CEC1DF0CDD0ABA43D
:1019300005D0030152839CEC1DF0C6D0ABA03ED075
:10194000AECF4DF3800E0301261103014D1904E1C2
:1019500003015289AB96B8D003014D5104E04D51BB
:101960000301261927E103015299AB9603014D515A
:1019700003E00301529702D0030152874DC356F38F
:101980004FC357F303014F050301586F600E030166
:101990005725006E016A000E012200C0E9FF01C058
:1019A000EAFF4DC3EFFF572B5751800A02E10301B5
:1019B000576B8AD003015299AB8686D0AECF4DF3D8
:1019C000030152A919D0800E0301261103014D19FC
:1019D00011E18B909D9AAB980301515104E1AD6ADE
:1019E0009CEC1DF007D000C4ADFF010E0301546F45
:1019F0009D886AD0AB8668D003014D5103015627FC
:101A000003015751030158191BE1030156510CE121
:101A100057C34FF3030152B712D08B909D9AAB98E6
:101A2000AD6A9CEC1DF00BD00301528552B707D074
:101A30008B909D9AAB98010EAD6E9CEC1DF044D03E
:101A4000030157510301501908E1030150510301EB
:101A50004F1903E09CEC1DF037D04FC300F0016A32
:101A6000004A012AE56A800EE56E0150E56E0050DD
:101A7000E56E9AEC13F0006E040EE12600500301AF
:101A80004E6F030157190CE11F0E03014D150301A1
:101A9000586F582B582B03014F5103015827589F5B
:101AA00057C300F00301572B016A600E0026000E99
:101AB000012200C0E9FF01C0EAFF4DC3EFFF57510B
:101AC000800A02E10301576BE4CF01F0E4CF00F09C
:101AD0001200D9CFE5FFE1CFD9FF00C0E5FF01C07B
:101AE000E5FF02C0E5FF03C0E5FF04C0E5FF05C058
:101AF000E5FF06C0E5FF07C0E5FF08C0E5FF09C038
:101B0000E5FF0AC0E5FF0BC0E5FF0CC0E5FF0DC017
:101B1000E5FF0EC0E5FF0FC0E5FF020EDBCF00F0D2
:101B2000030EDBCF01F0040EDBCF02F0050EDBCF9E
:101B300003F0060EDBCF04F0070EDBCF05F0080E36
:101B4000DBCF06F0200E076E086A06C009F00A6AAD
:101B50000B6A0C6AE56AE56AE56A0950E56E0350AE
:101B6000E56E0250E56E0150E56E0050E56E45EC05
:101B70000EF00D6E080EE126300E0D263A0E0D5CAD
:101B800005E30D500E6E270E0E240D6EFF0E072678
:101B90000822000E07240E6E030E08200F6E0EC0E2
:101BA000E9FF0FC0EAFF0DC0EFFF0C50E56E0B50D0
:101BB000E56E0A50E56E0950E56E0350E56E025081
:101BC000E56E0150E56E0050E56EE2EC0EF0006E41
:101BD000F3CF01F0F4CF02F0E9CF03F0080EE126D5
:101BE0000050011002100310D8A4AFD707C000F0B6
:101BF00008C001F004C002F005C003F000C004F00A
:101C000001C005F0004A012A000E0426030E052239
:101C100004C0E9FF05C0EAFFEFCF04F002C0E9FF0E
:101C200003C0EAFF04C0EFFF024A032A000E015C72
:101C300002E1200E005CE2E302C0E9FF03C0EAFF1C
:101C4000000EEF6AE4CF0FF0E4CF0EF0E4CF0DF01A
:101C5000E4CF0CF0E4CF0BF0E4CF0AF0E4CF09F0CE
:101C6000E4CF08F0E4CF07F0E4CF06F0E4CF05F0CE
:101C7000E4CF04F0E4CF03F0E4CF02F0E4CF01F0CE
:101C8000E4CF00F0E4CFD9FF1200D9CFE5FFE1CFD8
:101C9000D9FF00C0E5FF01C0E5FF02C0E5FF03C0BA
:101CA000E5FF04C0E5FF05C0E5FF06C0E5FF07C08E
:101CB000E5FF08C0E5FF09C0E5FF0AC0E5FF020E29
:101CC000DBCF00F0030EDBCF01F0040EDBCF02F020
:101CD000050EDBCF03F0060EDBCF04F0070EDBCFE3
:101CE00005F0080EDBCF06F0090EDBCF07F0086A1F
:101CF000045005100610071005E1E968F468F36860
:101D0000E86847D0096A0750800BE8440A6E0A5019
:101D10001BE1045004260536063607360750035CDF
:101D200008E10650025C05E10550015C02E1045047
:101D3000005C06E2D890073206320532043204D045
:101D4000092A09C008F0DFD70750035C08E10650F4
:101D5000025C05E10550015C02E10450005C08E30F
:101D60000450005E0550015A0650025A0750035AAB
:101D7000D890073206320532043208C009F008064E
:101D80000950E2E103C0E9FF02C0F4FF01C0F3FF24
:101D90000050E4CF0AF0E4CF09F0E4CF08F0E4CF3C
:101DA00007F0E4CF06F0E4CF05F0E4CF04F0E4CF91
:101DB00003F0E4CF02F0E4CF01F0E4CF00F0E4CF91
:101DC000D9FF1200D9CFE5FFE1CFD9FF00C0E5FF71
:101DD00001C0E5FF02C0E5FF03C0E5FF04C0E5FF69
:101DE00005C0E5FF06C0E5FF07C0E5FF08C0E5FF49
:101DF00009C0E5FF0AC0E5FF0BC0E5FF0CC0E5FF29
:101E00000DC0E5FF020EDBCF00F0030EDBCF01F0CB
:101E1000040EDBCF02F0050EDBCF03F0060EDBCFA6
:101E200004F0070EDBCF05F0080EDBCF06F0090E3D
:101E3000DBCF07F0086A096A0A6A0B6A200E0C6E8B
:101E40000350800BE8440D6E005000260136023628
:101E500003360850082609360A360B360D50D8A42A
:101E6000088007500B5C08E106500A5C05E105504C
:101E7000095C02E10450085C09E30450085E055067
:101E8000095A06500A5A07500B5A00800C040D6E6E
:101E90000DC00CF00D50D4E103C0E9FF02C0F4FF07
:101EA00001C0F3FF0050E4CF0DF0E4CF0CF0E4CF1D
:101EB0000BF0E4CF0AF0E4CF09F0E4CF08F0E4CF70
:101EC00007F0E4CF06F0E4CF05F0E4CF04F0E4CF70
:101ED00003F0E4CF02F0E4CF01F0E4CF00F0E4CF70
:101EE000D9FF120000C0E5FF01C0E5FF03C0E5FF18
:101EF00004C0E5FF05C0E5FF06C0E5FF07C0E5FF3C
:101F000008C0E5FF09C0E5FF0AC0E5FF0BC0E5FF1B
:101F100047C300F048C301F00301473F01D0482BFD
:101F20000050E56E8EEC1DF0E652076E046A056AFD
:101F3000066A47C300F048C301F00301473F01D0E0
:101F4000482B0050E56E8EEC1DF0E6520B6A0A6ECF
:101F5000086A0850041205120A5006120B500712A4
:101F600047C300F048C301F00301473F01D0482BAD
:101F70000050E56E8EEC1DF0E652036E006A03C061
:101F800001F0E86A03BEFF0E086E096E00500412ED
:101F900001500512085006120950071247C300F0FD
:101FA00048C301F00301473F01D0482B0050E56EC4
:101FB0008EEC1DF0E652016A041201500512061261
:101FC000071207C0E9FF06C0F4FF05C0F3FF045085
:101FD000E4CF0BF0E4CF0AF0E4CF09F0E4CF08F04F
:101FE000E4CF07F0E4CF06F0E4CF05F0E4CF04F04F
:101FF000E4CF03F0E4CF01F0E4CF00F0120000C022
:10200000E5FF01C0E5FF02C0E5FF03C0E5FF04C036
:10201000E5FF0301505103014F1901E15CD050C3AA
:1020200000F0002A009E600E0024016E026A000E7D
:10203000022201C0E9FF02C0EAFFEFCF5AF31F0EF0
:1020400003015A1750C359F35A5103015927592B09
:10205000592B599FA2EC1AF0016E015003E1016A5D
:10206000012A01D0016AA2EC1AF003015A6F800E16
:102070005A15026E1F0E5A15036E03C004F003C0FA
:102080005AF3045003E14FC350F338D001501BE022
:1020900002501FE0A2EC1AF0006E03015A07005034
:1020A000420A17E000504E0A03E17FEC17F011D00E
:1020B0000050460A03E1D0EC1DF00BD00050490A55
:1020C00008E1FF0006D050C35BF30250D8A480ECB7
:1020D00018F059C350F3030122510301231906E0FC
:1020E0000301515103E113EC11F008D08BB006D07D
:1020F0000301515103E1ACB29CEC1DF0E4CF04F0BC
:10210000E4CF03F0E4CF02F0E4CF01F0E4CF00F03D
:102110001200D9CFE5FFE1CFD9FF00C0E5FF01C034
:10212000E5FF02C0E5FF03C0E5FF04C0E5FF05C011
:10213000E5FF06C0E5FF07C0E5FF08C0E5FF09C0F1
:10214000E5FF0AC0E5FF020EDBCF00F0030EDBCF98
:1021500001F0040EDBCF02F0050EDBCF03F0060E1C
:10216000DBCF04F0070EDBCF05F00038E8441F0B8F
:10217000066E076A490E0626030E072206C0E9FF0F
:1021800007C0EAFFEFCF08F0070E0014096E010E3A
:102190000A6E095005E0E86CD8900A36010FFDE39D
:1021A0000A50081206C0E9FF07C0EAFF08C0EFFFA7
:1021B000230E0024066E076A0F0E072206C0E9FFF1
:1021C00007C0EAFF01C0EFFF016A230E0026040EDC
:1021D0000122800E025E070E02160238F00B036E1B
:1021E000070E05160550032600C0E9FF01C0EAFFEF
:1021F00003C0EFFFE4CF0AF0E4CF09F0E4CF08F02A
:10220000E4CF07F0E4CF06F0E4CF05F0E4CF04F02C
:10221000E4CF03F0E4CF02F0E4CF01F0E4CF00F02C
:10222000E4CFD9FF120000C0E5FF01C0E5FF02C006
:10223000E5FF03C0E5FFACA276D0D0EC1BF0006E4A
:10224000005005E10301236B0301226B6CD023C313
:1022500001F000500126D0EC1BF0026E0006025087
:10226000230A1FE1010E005CD8A05BD0D0EC1BF06C
:10227000026E690A03E148EC1AF053D00250720A68
:1022800003E19CEC1DF04DD00250730A01E049D0EF
:102290008B80AB869D8A9D98AE50AE50AB98AB8834
:1022A00040D00250430A05E00250420A01E039D012
:1022B00001D0008E00C053F300500401006F010EE6
:1022C0000301546F03012351011814E0D0EC1BF0FB
:1022D000026E03015327000E03015425006E036AAA
:1022E000040E032200C0E9FF03C0EAFF02C0EFFFB3
:1022F000542BE8D7000E03015425006E026A040E29
:1023000002220301531D036E032A00C0E9FF02C02D
:10231000EAFF03C0EFFF0301542B54C351F3030141
:102320004B6B01C023F3E4CF03F0E4CF02F0E4CF22
:1023300001F0E4CF00F01200D9CFE5FFE1CFD9FFE3
:1023400000C0E5FF01C0E5FF02C0E5FF03C0E5FFF7
:1023500004C0E5FF05C0E5FF06C0E5FF07C0E5FFD7
:10236000020EDBCF00F0030EDBCF01F0040EDBCF5B
:1023700002F0050EDBCF03F002C006F00650046E3B
:10238000800A33E100C0E9FF01C0F3FF02502AECEC
:102390001CF0056EF3CF06F0F4CF07F003C0E5FFA5
:1023A00005C0E9FF06C0F3FF0750E6EC1DF000C0D2
:1023B000E9FF01C0F3FF02502AEC1CF0056EF3CFD9
:1023C00006F0F4CF07F0052A02E3064A072A05C003
:1023D000E5FF06C0F4FF07C0F6FF00C0E9FF01C03B
:1023E000F3FF02507FEC1DF01DD004AA1BD0047A2D
:1023F000045004E103501FEC1EF014D00450010AF5
:1024000004E1035002EC00F00DD004500F0A04E187
:10241000035017EC1AF006D004500E0A03E10350E3
:102420002FEC1EF0E4CF07F0E4CF06F0E4CF05F088
:10243000E4CF04F0E4CF03F0E4CF02F0E4CF01F006
:10244000E4CF00F0E4CFD9FF120000C0E5FF01C0E7
:10245000E5FF02C0E5FF03C0E5FF04C0E5FF006A39
:10246000490E0024016E026A030E022201C0E9FF38
:1024700002C0EAFFEF6A002A020E005CF1E3006A84
:102480000050020DF450026EF3CF01F0E00E012473
:10249000036E000E0220046E03C0E9FF04C0EAFFD1
:1024A000EE6AEF6A390E0124036E040E0220046EF8
:1024B00003C0E9FF04C0EAFFEE6AEF6A590E012487
:1024C000036E040E0220046E03C0E9FF04C0EAFF9D
:1024D000EE6AEF6A930E0124036E040E0220046E6E
:1024E00003C0E9FF04C0EAFFEE6AEF6AB30E0126FB
:1024F000040E022201C0E9FF02C0EAFFEE687F0E6F
:10250000EF6E230E0024016E026A040E022201C047
:10251000E9FF02C0EAFFEF68002A100E005CD8A0B5
:10252000AFD7AF0EC06EC16A010EC26EC282E4CFD9
:1025300004F0E4CF03F0E4CF02F0E4CF01F0E4CF05
:1025400000F012004320412025642025640A000089
:10255000D9CFE5FFE1CFD9FF00C0E5FF01C0E5FF1E
:1025600002C0E5FF03C0E5FF04C0E5FF05C0E5FFCD
:1025700006C0E5FF07C0E5FF020EDBCF00F0030E4B
:10258000DBCF01F0040EDBCF02F0050EDBCF03F052
:1025900023C324F3030122510301245F240703C052
:1025A00004F0056A030E0426D8B0052A24C306F0F9
:1025B000076A0750800FF36E0550800FF35C02E14D
:1025C0000450065C02E2E8682BD0020E035C02E2D3
:1025D000E86A26D003060350E56EFAEC18F0E652DE
:1025E000046A0350045C14E204500024056EE86A97
:1025F0000120066EE86A022005C0E9FF06C0F3FF6D
:102600005FEC1DF0042AE56EFAEC18F0E652E9D70B
:1026100023C324F3030122510301245F2407E86A42
:10262000E4CF07F0E4CF06F0E4CF05F0E4CF04F008
:10263000E4CF03F0E4CF02F0E4CF01F0E4CF00F008
:10264000E4CFD9FF1200D9CFE5FFE1CFD9FF00C019
:10265000E5FF01C0E5FF02C0E5FF03C0E5FF04C0E0
:10266000E5FF05C0E5FF020EDBCF00F0030EDBCF78
:1026700001F0040EDBCF02F00050020DF450036EA7
:10268000F3CF00F0390E0024046E040E0320056E13
:1026900004C0E9FF05C0EAFF01C0EEFF02C0EFFF82
:1026A000590E0024046E040E0320056E04C0E9FFD9
:1026B00005C0EAFFEECF04F0EFCF05F00150045C57
:1026C000016E02500558026ED30E0026040E03223E
:1026D00000C0E9FF03C0EAFF01C0EEFF02C0EFFF48
:1026E000D88002AED89004E3021E016CD8B4022A4E
:1026F0000250800F800F02E1030E015C02E2016ACA
:10270000026A0150021007E100C0E9FF03C0EAFFBE
:10271000000EEE6AEF6AE4CF05F0E4CF04F0E4CFF8
:1027200003F0E4CF02F0E4CF01F0E4CF00F0E4CF17
:10273000D9FF1200D9CFE5FFE1CFD9FF00C0E5FFF7
:1027400001C0E5FF02C0E5FF03C0E5FF04C0E5FFEF
:1027500005C0E5FF06C0E5FF020EDBCF00F0030E6B
:10276000DBCF01F0040EDBCF02F0050EDBCF03F070
:10277000D88001AED890046A0436045007E0011CEA
:10278000066E001C056E054A062A04D000C005F03E
:1027900001C006F0D88003AED89007E3031C016E99
:1027A000021C006E004A012A04D002C000F003C0DF
:1027B00001F00150E56E0050E56E0650E56E0550E3
:1027C000E56EA1EC15F0006EF3CF01F0040EE126EA
:1027D00004500AE0011C036E001C026E024A032A28
:1027E00003C0F3FF025003D001C0F3FF0050E4CF59
:1027F00006F0E4CF05F0E4CF04F0E4CF03F0E4CF3B
:1028000002F0E4CF01F0E4CF00F0E4CFD9FF1200F2
:10281000D9CFE5FFE1CFD9FF00C0E5FF01C0E5FF5B
:1028200002C0E5FF03C0E5FF04C0E5FF05C0E5FF0A
:10283000020EDBCF00F0030EDBCF01F0040EDBCF86
:1028400002F0050EDBCF03F047C304F048C305F0E8
:102850000301473F01D0482B0350E56E0450E56E5D
:102860008CEC1BF0E652E65247C304F048C305F077
:102870000301473F01D0482B0250056EE56E04501E
:10288000E56E8CEC1BF0E652E65247C304F048C3F9
:1028900005F00301473F01D0482B0150056EE56E5E
:1028A0000450E56E8CEC1BF0E652E65247C304F090
:1028B00048C305F00301473F01D0482B0050E56EA7
:1028C0000450E56E8CEC1BF0E652E652E4CF05F0C6
:1028D000E4CF04F0E4CF03F0E4CF02F0E4CF01F062
:1028E000E4CF00F0E4CFD9FF1200D9CFE5FFE1CF6C
:1028F000D9FF00C0E5FF01C0E5FF02C0E5FF03C04E
:10290000E5FF04C0E5FF05C0E5FF06C0E5FF020ED8
:10291000DBCF00F0030EDBCF01F0040EDBCF02F0C3
:102920000401375119E172EC0FF0036EF3CF04F09C
:10293000F4CF05F0E9CF06F003C0E5FF04C0F4FFD3
:1029400005C0F6FF06C0F7FF00C0E9FF01C0F3FFB6
:1029500002504EEC1DF01ED004013751010A1AE15D
:1029600000C0E9FF01C0F3FF0250B0EC1BF0006EA5
:10297000F3CF01F0F4CF02F0E9CF03F00350E56E9E
:102980000250E56E0150E56E0050E56E08EC14F063
:10299000040EE126E4CF06F0E4CF05F0E4CF04F026
:1029A000E4CF03F0E4CF02F0E4CF01F0E4CF00F095
:1029B000E4CFD9FF1200D9CFE5FFE1CFD9FF00C0A6
:1029C000E5FF01C0E5FF02C0E5FF03C0E5FF04C06D
:1029D000E5FF05C0E5FF06C0E5FF020EDBCF00F016
:1029E000030EDBCF01F00038E8441F0B026E036AD0
:1029F000490E0226030E032202C0E9FF03C0EAFFCC
:102A0000EFCF04F0070E0014056E010E066E0550A0
:102A100005E0E86CD8900636010FFDE3065004127D
:102A200002C0E9FF03C0EAFF04C0EFFF230E002449
:102A3000026E036A0F0E032202C0E9FF03C0EAFF21
:102A400001C0EFFF016A230E0026040E012200C020
:102A5000E9FF01C0EAFFFF0EEF68E4CF06F0E4CF24
:102A600005F0E4CF04F0E4CF03F0E4CF02F0E4CFCC
:102A700001F0E4CF00F0E4CFD9FF1200D9CFE5FF99
:102A8000E1CFD9FF00C0E5FF01C0E5FF02C0E5FFCF
:102A900003C0E5FF04C0E5FF05C0E5FF06C0E5FF94
:102AA000020EDBCF00F0030EDBCF01F0040EDBCF14
:102AB00002F0050EDBCF03F0060EDBCF04F0070EAD
:102AC000DBCF05F0080EDBCF06F0D88003AED89040
:102AD00015E306500A0A12E104C0E9FF05C0EAFF47
:102AE0002D0EEF6E044A052A031E021E011E006C05
:102AF00005E1012A03E1022AD8B4032A0650E56E53
:102B00000550E56E0450E56E0350E56E0250E56E2B
:102B10000150E56E0050E56E69EC0DF0070EE12600
:102B2000E4CF06F0E4CF05F0E4CF04F0E4CF03F007
:102B3000E4CF02F0E4CF01F0E4CF00F0E4CFD9FF1E
:102B40001200D9CFE5FFE1CFD9FF00C0E5FF01C0FA
:102B5000E5FF02C0E5FF03C0E5FF04C0E5FF05C0D7
:102B6000E5FF06C0E5FF020EDBCF00F0030EDBCF72
:102B700001F0040EDBCF02F0050EDBCF03F0046A98
:102B8000056A0350800BE844066E065011E10250BE
:102B9000022603360350015C02E10250005C04E2AD
:102BA000D8900332023204D0052A05C004F0E9D7D8
:102BB0000350015C02E10250005C04E30250005E3D
:102BC0000350015AD8900332023204C005F00406C3
:102BD0000550EEE101C0F3FF0050E4CF06F0E4CF72
:102BE00005F0E4CF04F0E4CF03F0E4CF02F0E4CF4B
:102BF00001F0E4CF00F0E4CFD9FF120000C0E5FF00
:102C000001C0E5FF02C0E5FF03C0E5FF50C300F0CF
:102C1000016A5BC302F0036A0250005E0350015A6E
:102C2000E56A800EE56E0150E56E0050E56E9AECA7
:102C300013F0006E040EE12600065BC301F0430EA4
:102C400017EC1AF0200E17EC1AF0005020E0600E7E
:102C50000124026E036A000E032202C0E9FF03C0D2
:102C6000EAFFEFCF02F0E56A0250E56E000EE56E76
:102C70003B0EE56E500EE56E01EC18F0050EE126F8
:102C8000012A0150800A01E1016A0006DED7E4CF83
:102C900003F0E4CF02F0E4CF01F0E4CF00F0120043
:102CA000D9CFE5FFE1CFD9FF00C0E5FF01C0E5FFC7
:102CB00002C0E5FF03C0E5FF04C0E5FF020EDBCF65
:102CC00000F0030EDBCF01F0040EDBCF02F00401B5
:102CD000375111E1E3EC19F0036EF3CF04F003C0B8
:102CE000E5FF04C0F4FF00C0E9FF01C0F3FF02509C
:102CF000B8EC1DF016D004013751010A12E100C0F2
:102D0000E9FF01C0F3FF0250E9EC1CF0006EF3CFC5
:102D100001F00150E56E0050E56EBDEC18F0E65292
:102D2000E652E4CF04F0E4CF03F0E4CF02F0E4CFC6
:102D300001F0E4CF00F0E4CFD9FF1200260EF66ECA
:102D40003C0EF76E000EF86E0900F550056E090096
:102D5000F550066E04E1056702D0EBEF16F00900AE
:102D6000F550006E0900F550016E0900F550026E35
:102D700009000900F550E96E0900F550EA6E0900F6
:102D800009000900F550036E0900F550046E0900B2
:102D90000900F6CF07F0F7CF08F0F8CF09F000C030
:102DA000F6FF01C0F7FF02C0F8FF035002E1045034
:102DB00007E00900F550EE6E0306F8E20406F9D7C5
:102DC00007C0F6FF08C0F7FF09C0F8FF050601E2DB
:102DD0000606AAEF16F0120000C0E5FF01C0E5FFED
:102DE00002C0E5FF03C0E5FFFFEC0FF054EC06F076
:102DF00078EC1AF0006EF3CF01F0F4CF02F0E9CFD7
:102E000003F004013351005E3451015A3551025A26
:102E10003651035A039E3F0E035C08E1FF0E025C2D
:102E200005E1FF0E015C02E1FF0E005C16E278ECAA
:102E30001AF0F3CF01F0F4CF02F0E9CF03F0200F46
:102E40000401336F4E0E0120346F000E0220356FE7
:102E5000000E0320366F0EEC04F0E4CF03F0E4CF55
:102E600002F0E4CF01F0E4CF00F01200D9CFE5FF8B
:102E7000E1CFD9FF00C0E5FF01C0E5FF02C0E5FFDB
:102E800003C0E5FF04C0E5FF05C0E5FF020EDBCF90
:102E900000F00050010A22E1016A0150020DF450D5
:102EA000036EF3CF02F0930E0224046E040E03208F
:102EB000056E04C0E9FF05C0EAFFEE687F0EEF6E05
:102EC000B30E0226040E032202C0E9FF03C0EAFF8C
:102ED000EE6AEF6A012A100E015CDFE300C028F3FE
:102EE000E4CF05F0E4CF04F0E4CF03F0E4CF02F048
:102EF000E4CF01F0E4CF00F0E4CFD9FF120000C02E
:102F0000E5FF01C0E5FF02C0E5FFA2EC1AF0006E8C
:102F1000A2EC1AF0016E0050026ED00E0224006E78
:102F20000A0E005C05E30050026EF90E0224006EEA
:102F30000150026ED00E0224016E0A0E015C05E300
:102F40000150026EF90E0224016E080E005C12E2BE
:102F5000100E015CD8B00ED00038F00B0124006ECA
:102F600071EC19F0016E015005E10050E56E5FEC67
:102F70001CF0E652E4CF02F0E4CF01F0E4CF00F021
:102F80001200D9CFE5FFE1CFD9FF00C0E5FF01C0B6
:102F9000E5FF02C0E5FF03C0E5FF04C0E5FF020E48
:102FA000DBCF00F00038E8441F0B016E026A490EC7
:102FB0000126030E022201C0E9FF02C0EAFFEFCFA3
:102FC00003F0070E0016010E046E005005E0E86CD9
:102FD000D8900436010FFDE3041C031601C0E9FF7D
:102FE00002C0EAFF03C0EFFFE4CF04F0E4CF03F038
:102FF000E4CF02F0E4CF01F0E4CF00F0E4CFD9FF5A
:103000001200D9CFE5FFE1CFD9FF00C0E5FF01C035
:10301000E5FF02C0E5FF020ED924006E000EDA20A3
:10302000016E800E026E030E0026000E01220222A7
:103030000250E56E0150E56E0050E56E040EDBCFE8
:10304000E5FF030EDBCFE5FF020EDBCFE5FF04015A
:103050007F51E56E7E51E56E7D51E56E0EEC00F020
:10306000006EF3CF01F0090EE12601C0F3FF00501E
:10307000E4CF02F0E4CF01F0E4CF00F0E4CFD9FFD9
:103080001200D9CFE5FFE1CFD9FF00C0E5FF01C0B5
:10309000E5FF02C0E5FF03C0E5FF020EDBCF00F055
:1030A000030EDBCF01F0040EDBCF02F00401375139
:1030B0000DE1BDEC1CF0036E03C0E5FF00C0E9FFAD
:1030C00001C0F3FF0250E6EC1DF00FD004013751B0
:1030D000010A0BE100C0E9FF01C0F3FF02505FEC01
:1030E0001DF0E56E41EC1BF0E652E4CF03F0E4CFB7
:1030F00002F0E4CF01F0E4CF00F0E4CFD9FF1200FA
:1031000000C0E5FF01C0E5FFA2EC1AF0006E4C0A1A
:1031100008E1A2EC1AF0300A02E08B8229D08B92EF
:1031200027D00050450A24E1000EE56E140EE56E2E
:10313000320EE56E01EC18F0030EE12629EC1EF0CC
:10314000006E00C001F0000601500FE0A2EC1AF082
:10315000E56AE56E000EE56E140EE56E340EE56E62
:1031600001EC18F0050EE126ECD70A0E17EC1AF068
:10317000E4CF01F0E4CF00F01200D9CFE5FFE1CFBA
:10318000D9FF00C0E5FF01C0E5FF02C0E5FF03C0B5
:10319000E5FF020EDBCF00F0030EDBCF01F047C3EB
:1031A00002F048C303F00301473F01D0482B015010
:1031B000E56E0250E56E8CEC1BF0E652E65247C31A
:1031C00002F048C303F00301473F01D0482B0050F1
:1031D000E56E0250E56E8CEC1BF0E652E652E4CF51
:1031E00003F0E4CF02F0E4CF01F0E4CF00F0E4CF4D
:1031F000D9FF1200D9CFE5FFE1CFD9FF00C0E5FF2D
:1032000001C0E5FF02C0E5FF03C0E5FF04C0E5FF24
:10321000020EDBCF00F022C301F0026A014A022A4B
:1032200023C303F0046A0150031803E10250041899
:1032300001E001D00ED0000E03012225016E026ACA
:10324000010E022201C0E9FF02C0EAFF00C0EFFF49
:10325000222BE4CF04F0E4CF03F0E4CF02F0E4CF7C
:1032600001F0E4CF00F0E4CFD9FF1200D9CFE5FFA1
:10327000E1CFD9FF00C0E5FF01C0E5FF02C0E5FFD7
:1032800003C0E5FF020EDBCF00F0016A5BC302F072
:10329000036A0250002603500122E56A800EE56EA3
:1032A0000150E56E0050E56E9AEC13F0006EF3CF1E
:1032B00001F0040EE126600E0026000E012200C07F
:1032C000E9FF01C0EAFFEFCF00F00050E4CF03F0C8
:1032D000E4CF02F0E4CF01F0E4CF00F0E4CFD9FF77
:1032E000120000C0E5FF01C0E5FF02C0E5FF010ECE
:1032F000006EA2EC1AF0016E01C002F0015023E052
:103300000050E56E8EEC1DF0016EE652015010E1AA
:103310000A0E005C0BE20A0E006EE56E8EEC1DF0EC
:10332000016EE652015004E1E8680ED0E8680CD066
:103330000150021802E0E86807D0002A1B0E005C6A
:10334000D8E3E86801D0E86AE4CF02F0E4CF01F006
:10335000E4CF00F01200F3CFE5FFF4CFE5FFE9CFB3
:10336000E5FFEACFE5FFFACFE5FFFBCFE5FF03017D
:1033700020510F01356F030121510F01366FD650D7
:10338000336FD750346FF2A411D00301203F01D026
:10339000212BF294030120510F01356F03012151BC
:1033A0000F01366FD650336FD750346FE4CFFBFF29
:1033B000E4CFFAFFE4CFEAFFE4CFE9FFE4CFF4FF84
:1033C000E4CFF3FF110000C0E5FF01C0E5FF02C03C
:1033D000E5FF03C0E5FF47C300F048C301F0030168
:1033E000473F01D0482B0050E56E8EEC1DF0E652B1
:1033F000036E026A47C300F048C301F00301473F70
:1034000001D0482B0050E56E8EEC1DF0E652016AAB
:1034100002120150031203C0F3FF0250E4CF03F085
:10342000E4CF02F0E4CF01F0E4CF00F0120000C0DE
:10343000E5FF01C0E5FF02C0E5FF006E000E0301DD
:103440002725016E026A0F0E022201C0E9FF02C0A9
:10345000EAFF00C0EFFF220E275D01E2272B00509C
:103460000A0A0FE103012751E56E800EE56E0F0E8B
:10347000E56E000EE56EA8EC12F0040EE1260301E5
:10348000276BE4CF02F0E4CF01F0E4CF00F01200AC
:103490000301226B0301236B030124698B80949049
:1034A000B06A3F0EAF6EB886AC8AAC84AC8CAC9080
:1034B000AB8CAB8E0301526B03014C6B03014F6B62
:1034C0000301506B0301516B000EE56A8EEC1DF099
:1034D0000301266FE6529F989F9A010E0301256F04
:1034E00004017D6B7E6B2F0E7F6F9CEC1DF0120034
:1034F0000301205104017B6F0301215104017C6F02
:10350000D650796FD7507A6F7B510301201905E1AE
:1035100004017C51030121190CE003012051040135
:103520007B6F0301215104017C6FD650796FD75016
:103530007A6F7CC4E9FF7BC4F4FF7AC4F3FF040113
:103540007951120000C0E5FF01C0E5FF03015051B1
:103550000301591905E00301505103014F1902E11C
:10356000E86A15D050C300F00301502B016A600EC9
:103570000026000E012200C0E9FF01C0EAFFEFCFE4
:1035800000F05051800A02E10301506B0050E4CF7B
:1035900001F0E4CF00F0120000C0E5FF23EC1EF0C4
:1035A0000401896B806B8983006A89B3002A00500B
:1035B000010BE844F46E8051FD0BF410806FD58E42
:1035C000D59CD59AD588D596D594D582D580F28AC2
:1035D000F184D08EF28EF28CBA80FF0EBB68BA8472
:1035E000E4CF00F01200D9CFE5FFE1CFD9FF00C052
:1035F000E5FF01C0E5FF020EDBCF00F00050020D39
:10360000F450016EF3CF00F0D30E0026040E012219
:1036100000C0E9FF01C0EAFFEECF00F0EFCF01F0FC
:1036200001C0F3FF0050E4CF01F0E4CF00F0E4CF9D
:10363000D9FF1200D9CFE5FFE1CFD9FF00C0E5FFE8
:1036400001C0E5FF020EDBCF00F00050020DF45088
:10365000016EF3CF00F0E00E0026000E012200C044
:10366000E9FF01C0EAFFEECF00F0EFCF01F001C0AB
:10367000F3FF0050E4CF01F0E4CF00F0E4CFD9FF36
:103680001200D9CFE5FFE1CFD9FF00C0E5FF01C0AF
:10369000E5FF02C0E5FF020EDBCF00F047C301F0FB
:1036A00048C302F00301473F01D0482B0050E56EAC
:1036B0000150E56E8CEC1BF0E652E652E4CF02F0CE
:1036C000E4CF01F0E4CF00F0E4CFD9FF1200D8CF6F
:1036D000E5FFE0CFE5FFE56EF3CFE5FFF4CFE5FFD3
:1036E000E9CFE5FFEACFE5FFFACFE5FFFBCFE5FF46
:1036F00067EC0CF0E4CFFBFFE4CFFAFFE4CFEAFF86
:10370000E4CFE9FFE4CFF4FFE4CFF3FFE450E4CFEC
:10371000E0FFE4CFD8FF1000D9CFE5FFE1CFD9FF1C
:1037200000C0E5FF020EDBCF00F0030EDBCFA8FFE9
:1037300000C0A9FFA69EA69CA684F29EF29C550EF0
:10374000A76EAA0EA76EA682A6A202D00000FCD782
:10375000A694F28EF28CE4CF00F0E4CFD9FF1200F1
:10376000E8AE0AD0F3CFEAFFEE50EECFF3FFEECF94
:10377000F4FFEECFE9FF1200E8BC36EF1EF0E9CF10
:10378000F6FFF3CFF7FFF86E0900F5500900F5CF0B
:10379000F3FF0900F5CFF4FF0900F5CFE9FF1200B0
:1037A00000C0E5FF01C0E5FF030122510301231919
:1037B00002E1E86A0FD0000E03012325006E016AC2
:1037C000010E012200C0E9FF01C0EAFFEFCF00F0C7
:1037D000232B0050E4CF01F0E4CF00F01200F2CF31
:1037E000EAFFF29EA69EA69CA684E9CFA9FFF3CF8E
:1037F000AAFFE4CFA8FFFBEC1DF0F4CFA8FFFBEC81
:103800001DF0F6CFA8FFFBEC1DF0F7CFA8FFFBECF7
:103810001DF0A694EABEF28E1200F2CFF6FFF29EE1
:10382000A69EA69CE9CFA9FFF3CFAAFFA680A85029
:10383000A94AAA2AA680A8CFF3FFA94AAA2AA68045
:10384000A8CFF4FFA94AAA2AA680A8CFEAFFF6BE0D
:10385000F28E1200E8AE08D0F3CFEAFFEE50EECFC2
:10386000F3FFEECFF4FF1200E8BC3EEF1EF0E9CF0D
:10387000F6FFF3CFF7FFF86E0900F5500900F5CF1A
:10388000F3FF0900F5CFF4FF1200F2CFEAFFF29E3A
:10389000A69EA69CA684E9CFA9FFF3CFAAFFE4CFFA
:1038A000A8FFFBEC1DF0F4CFA8FFFBEC1DF0F6CF5A
:1038B000A8FFFBEC1DF0A694EABEF28E1200D9CF51
:1038C000E5FFE1CFD9FF00C0E5FF020EDBCF00F03E
:1038D00000C026F30050E56E000EE56A8CEC1BF08C
:1038E000E652E652E4CF00F0E4CFD9FF1200F2CF67
:1038F000F6FFF29EA69EA69CE9CFA9FFF3CFAAFFF2
:10390000A680A850A94AAA2AA680A8CFF3FFA94A50
:10391000AA2AA680A8CFF4FFF6BEF28E120000C03D
:10392000E5FF01C0E5FF600E03015025006E016A4E
:10393000000E012200C0E9FF01C0EAFFEFCF00F056
:103940000050E4CF01F0E4CF00F01200D9CFE5FF42
:10395000E1CFD9FF00C0E5FF020EDBCF00F0610E22
:10396000005C05E37B0E005C02E2010E01D0E86A18
:10397000E4CF00F0E4CFD9FF120000C0E5FF01C0A2
:10398000E5FF47C300F048C301F00301473F01D002
:10399000482B0050E56E8EEC1DF0E652E4CF01F0AE
:1039A000E4CF00F01200D9CFE5FFE1CFD9FF00C08E
:1039B000E5FF020EDBCF00F000C025F3005004E16C
:1039C0009CEC1DF09D9A9D98E4CF00F0E4CFD9FFC8
:1039D0001200E8AE06D0F3CFEAFFEE50EECFF3FFD1
:1039E0001200E8BC34EF1EF0E9CFF6FFF3CFF7FF8B
:1039F000F86E0900F5500900F5CFF3FF1200F2CF81
:103A0000EAFFF29EA69EA69CA684E9CFA9FFF3CF6B
:103A1000AAFFE4CFA8FFFBEC1DF0F4CFA8FFFBEC5E
:103A20001DF0A694EABEF28E120012EEFFF022EE16
:103A3000FFF0F86AA68EA69CE9680E0EEA6E006892
:103A4000000EED6A0050FDE19EEC16F006EC00F071
:103A5000FFD7F2CFF6FFF29EA69EA69CE9CFA9FF64
:103A6000F3CFAAFFA680A850A94AAA2AA680A8CF69
:103A7000F3FFF6BEF28E1200F2CFEAFFF29EA69E90
:103A8000A69CA684E9CFA9FFF3CFAAFFE4CFA8FFA5
:103A9000FBEC1DF0A694EABEF28E1200E8AE0BD04D
:103AA000F3CFEAFFE4CFEEFFF4CFEEFFF6CFEEFF69
:103AB000F7CFEEFF1200E8BC38EF1EF01200E8AEC0
:103AC00004D0F3CFEAFFEE501200E8BC32EF1EF054
:103AD000E9CFF6FFF3CFF7FFF86E0900F5501200BB
:103AE00000000000FF000000000200020000004291
:103AF0000000000000000000000000000000E8AE30
:103B000009D0F3CFEAFFE4CFEEFFF4CFEEFFF6CF1C
:103B1000EEFF1200E8BC40EF1EF01200D9CFE5FF27
:103B2000E1CFD9FF020EDBCFA9FFA69CA69EA680FF
:103B3000A850E4CFD9FF1200ACA2FED78B80AE50C4
:103B40000000AE50AB98AB88AB869D8A9D98120062
:103B500025642000F2CFF6FFF29EA69EA69CE9CF38
:103B6000A9FFF3CFAAFFA680A850F6BEF28E1200DE
:103B7000E8AE07D0F3CFEAFFE4CFEEFFF4CFEEFFDD
:103B80001200E8BC3CEF1EF01200700ED36E9B8C4E
:103B9000FF0E9268936894689668626AF19E1200BC
:103BA00000C0E5FF71EC19F0006E005001E1FF006C
:103BB000E4CF00F012000F01456B900E0F01446F2F
:103BC000030E0F01436F0F01458F1200E8AE05D0C1
:103BD000F3CFEAFFE4CFEEFF1200E8BC3AEF1EF0AD
:103BE0001200D9CFE5FFE1CFD9FF020EDBCF2BF3D7
:103BF000E4CFD9FF1200550EA76EAA0EA76EA682BB
:103C0000A6B2FED7A94AAA2A010E0401376F1C0EDC
:103C10000301476F486B12000401376B1C0E030150
:103C2000476F486B12000100E03A000020030000DB
:103C30001D000000CCEC1AF048EC1AF01200ACA207
:103C4000FED7AD6E1200C5EC1DF0120003015051FD
:103C5000120003015A511200030125511200E8CF4E
:103C60007FFF1200AAEF1DF029EF1DF00DEF1CF0F1
:103C7000EFEF1BF03CEF1DF0FFEF1CF077EF1CF0B7
:043C800045EF1CF000
:00000001FF
